:020000040000FA
:100000000C9441010C9472010C9472010C947201D5
:100010000C9472010C9472010C9472010C94720194
:100020000C9472010C9472010C9472010C94720184
:100030000C9472010C9472010C9472010C94720174
:100040000C9472010C94320F0C9472010C94720196
:100050000C9472010C9472010C9472010C945E0E5B
:100060000C9472010C94280E0C94FE0D0C947201E9
:100070000C9472010C9472010C9472010C94720134
:100080000C94040F0C9472010C9472010C94720184
:100090000C9472010C9472010C9472010C94720114
:1000A0000C9472010C9472010C94D60E0C94720193
:1000B0000C9472010C9472010C9472010C94A80EB1
:1000C0000C9472010C9472010C9472010C947201E4
:1000D0000C9472010C9472010C9472010C947201D4
:1000E0000C9472010C946B030C94FC030C94B302FB
:1000F0000C94C00F0C9467030C946E030C94900343
:100100000C945F030C9416020C9499030C9438021F
:100110000C949E030C940E030C9466020C947803CA
:100120000C947E030C9407020C94B2070C942B0CD5
:100130000C9463030C943C040C949A030C94860373
:100140000C948C030C9474030C9494030C942A0266
:100150000C94B1070C94CB030C9482030C945903B8
:1001600000002100240027002A002D003000330069
:1001700001010000040107010A010000220025001E
:1001800028002B002E003100340002010000050180
:1001900008010B01000020002300260029002C008C
:1001A0002F003200000100000301060109010505CE
:1001B0000505070508080808020202020A0A0808DD
:1001C000040404040101010101010101030303030B
:1001D00003030303040707070C0C0C0C0C0C0C0C9A
:1001E0000202020206060606060606060B0B0B0BAB
:1001F0000B0B0B0B010210202008081020401020D0
:1002000040800201020108040201010204081020DA
:1002100040808040201008040201800402018040D8
:100220002010080402010804020101020408102041
:100230004080010204081020408000000A0B0209DF
:100240000C0D0E0807030401000000000000000070
:10025000000000000000000000000000000000009E
:10026000000000000000121110000000000000005B
:10027000000000000000000000000000000000007E
:10028000C00F11241FBECFEFD1E2DEBFCDBF00E013
:100290000CBF13E0A0E0B2E0E6EBF8E200E00BBF39
:1002A00002C007900D92A231B107D9F724E0A2E174
:1002B000B3E001C01D92A73FB207E1F711E0C1E42E
:1002C000D1E000E006C021970109802FFE010E94C5
:1002D0005114C034D10780E00807A9F70E948510A7
:1002E0000C9459140C94000096E0899FD0011124BD
:1002F000A959BB4F90967C936E935F9791E091962E
:100300009C939197E091D404F091D5049091D304FB
:10031000992339F0309751F0811108C080918304FE
:100320001994309719F05C968C91FACF0895CF927A
:10033000DF92EF92FF920F931F9396E0899FF00157
:100340001124E959FB4F11A2278D30A1213031052D
:1003500051F178F02230310509F451C023303105D4
:1003600009F452C01F910F91FF90EF90DF90CF9052
:1003700008956623B9F361E070E00E9474012FB71D
:10038000F8948091C6039091C703A091C803B091DF
:10039000C9032FBF8093BF049093C004A093C104EE
:1003A000B093C204DFCF9FB7F894C090C603D0903B
:1003B000C703E090C803F090C9039FBF0091BF043A
:1003C0001091C0042091C1043091C204C01AD10A16
:1003D000E20AF30A0091D1041091D20430E020E047
:1003E0000C151D052E053F0550F462E070E01F91CD
:1003F0000F91FF90EF90DF90CF900C9474016111FA
:10040000B1CF63E070E0F3CF70E060E0F0CFFC01CB
:10041000538D448D252F30E0842F90E0821B930B69
:10042000541710F0CF96089501970895FC01918D0F
:10043000828D981761F0A28DAE0FBF2FB11D5D9612
:100440008C91928D9F5F9F73928F90E008958FEFB4
:100450009FEF0895FC01918D828D981731F0828D68
:10046000E80FF11D858D90E008958FEF9FEF0895BF
:10047000FC01918D228D892F90E0805C9F4F821B23
:1004800091098F7399270895FC01A48DA80FB92FA6
:10049000B11DA35ABF4F2C91848D90E001968F73AC
:1004A0009927848FA689B7892C93A089B1898C91CB
:1004B000837080648C93938D848D981306C002881A
:1004C000F389E02D80818F7D80830895EF92FF92E4
:1004D0000F931F93CF93DF93EC0181E0888F9B8D67
:1004E0008C8D98131AC0E889F989808185FF15C021
:1004F0009FB7F894EE89FF896083E889F989808144
:100500008370806480839FBF81E090E0DF91CF9112
:100510001F910F91FF90EF900895F62E0B8D10E034
:100520000F5F1F4F0F731127E02E8C8D8E110CC0A3
:100530000FB607FCFACFE889F989808185FFF5CFEE
:10054000CE010E944402F1CFEB8DEC0FFD2FF11D87
:10055000E35AFF4FF0829FB7F8940B8FEA89FB892B
:1005600080818062CFCFCF93DF93EC01888D882389
:10057000B9F0AA89BB89E889F9898C9185FD03C006
:10058000808186FD0DC00FB607FCF7CF8C9185FFEB
:10059000F2CF808185FFEDCFCE010E944402E9CFEA
:1005A000DF91CF9108958AEC93E00E94380221E018
:1005B000892B09F420E0822F089580E090E0892BB8
:1005C00029F00E94D30281110E94000080E090E097
:1005D000892B49F080E090E0892B29F00E940000EF
:1005E00081110E94000080E090E0892B49F080E0BA
:1005F00090E0892B29F00E94000081110E940000E8
:1006000080E090E0892B49F080E090E0892B29F090
:100610000E94000081110C9400000895AF92BF92D7
:10062000CF92DF92EF92FF920F931F93CF93DF93BE
:100630006C017B018B01040F151FEB015E01AE18ED
:10064000BF08C017D10759F06991D601ED91FC910F
:100650000190F081E02DC6011995892B79F7C5012C
:10066000DF91CF911F910F91FF90EF90DF90CF908E
:10067000BF90AF9008958150823108F05AC0E82FA2
:10068000F0E08827E95BFC4F8F4F0C94511467030F
:100690006B0359035F03630399036E0374037803C9
:1006A0007E03820386038C039003990394039A03C9
:1006B0009E03809180008F778093800008958091C1
:1006C00080008F7DF9CF80918000877FF5CF84B542
:1006D0008F7784BD089584B58F7DFBCF8091B00066
:1006E0008F778093B00008958091B0008F7DF9CF0F
:1006F000809190008F778093900008958091900072
:100700008F7DF9CF80919000877FF5CF8091A000F9
:100710008F778093A00008958091A0008F7DF9CFFE
:100720008091A000877FF5CF809120018F77809303
:1007300020010895809120018F7DF9CF80912001C3
:10074000877FF5CFCF93DF93282F30E0F901E65C68
:10075000FD4F8491F901EC50FE4FD491F901E2551F
:10076000FE4FC491CC23A1F081110E943B03EC2FDA
:10077000F0E0EE0FFF1FEC56FE4FA591B491EC9107
:10078000ED2381E090E009F480E0DF91CF910895BE
:1007900080E090E0FACF862F0C94A2031F93CF93B2
:1007A000DF93282F30E0F901E65CFD4F8491F901D9
:1007B000EC50FE4FD491F901E255FE4FC491CC2389
:1007C000A9F0162F81110E943B03EC2FF0E0EE0FF1
:1007D000FF1FE658FE4FA591B4918FB7F894EC91A6
:1007E000111108C0D095DE23DC938FBFDF91CF912C
:1007F0001F910895DE2BF8CF862F642F0C94CE0323
:10080000CF93DF9390E0FC01EC50FE4F2491825592
:100810009E4FFC0184918823C9F090E0880F991FB6
:10082000FC01E05AFE4FA591B491FC01E658FE4F41
:10083000C591D49161110DC09FB7F8948C9120950A
:1008400082238C938881282328839FBFDF91CF91B7
:100850000895623051F49FB7F8943C91822F8095AF
:1008600083238C93E8812E2BEFCF8FB7F894EC91F4
:100870002E2B2C938FBFEACF862F642F0C9400046D
:100880006F927F928F929F92AF92BF92CF92DF92A0
:10089000EF92FF920F931F93CF93DF9381E08093AA
:1008A000D3048FB7F8944091C6035091C703609169
:1008B000C8037091C9038FBF8091C3049091C40491
:1008C000A091C504B091C604481B590B6A0B7B0B61
:1008D0008091CF049091D004B0E0A0E084179507F8
:1008E000A607B70708F01DC1C0E08091CD04C81766
:1008F00060F4E091C904F091CA04EC0FF11D62E0CC
:1009000080810E940004CF5FF0CF712C812C912C4C
:10091000540183948091CE04781608F05FC0072DAF
:1009200010E0E091CB04F091CC04E00FF11F61E006
:1009300080810E940004E091CB04F091CC04E00F90
:10094000F11F60E080810E94CE03D501C401072C15
:1009500004C0880F991FAA1FBB1F0A94D2F76C010D
:100960007C01E094F094612C8091CD046816F8F439
:10097000C62DD0E0E091C904F091CA04EC0FFD1F30
:1009800080810E94A2032496CC0FDD1FC959DB4F42
:10099000892B41F4888199818C299D2999838883A9
:1009A0006394E2CF888199818E219F21F7CFE091D6
:1009B000CB04F091CC04E00FF11F61E080810E9434
:1009C000CE038091CB049091CC04080F191F60E0F6
:1009D000F80180810E94000473949CCFC7E6D4E0A4
:1009E000FE018FEF9FEF278D30A1232B21F4148E72
:1009F000968F858F11A2369624E0E33AF20799F795
:100A0000F12C96E0D92E8091CD04F81608F050C054
:100A1000E12C0F2D10E0000F111F01591B4F2091E9
:100A2000CE04E21608F042C0F801608171810E2CFC
:100A300002C0769567950A94E2F7F29E9001112420
:100A40002E0D311DE7E6F4E080E0458D568D24172C
:100A5000350709F46AC08F5F36968A30B1F760FFB8
:100A600023C0E7E6F4E090E080E0448D411117C038
:100A7000E091C704F091C804E20FF31F4081D89EB3
:100A8000F001D99EF00D1124E959FB4F448F368FA8
:100A9000258F10A2178E61E00E94970105C0019674
:100AA00036968A30910509F7E394B9CFF394ABCF2A
:100AB00080E099A19111892F2696F4E0C33ADF07CF
:100AC000C1F79FB7F8944091C6035091C703609156
:100AD000C8037091C9039FBF4093C3045093C404DB
:100AE0006093C5047093C6048823D9F0809188046C
:100AF0008823B9F08091860490918704019789F446
:100B000080918304DF91CF911F910F91FF90EF901F
:100B1000DF90CF90BF90AF909F908F907F906F901D
:100B200008951092D30480E0EDCF6170B5CF0E949C
:100B300040048823E1F308953FB7F8948091B70308
:100B40009091B803A091B903B091BA0326B5A89BC0
:100B500005C02F3F19F00196A11DB11D3FBFBA2F4F
:100B6000A92F982F8827BC01CD01620F711D811D0F
:100B7000911D42E0660F771F881F991F4A95D1F794
:100B800008958F929F92AF92BF92CF92DF92EF9291
:100B9000FF924B015C010E949C056B017C010E944D
:100BA0009C056C197D098E099F09683E734081057B
:100BB0009105A8F321E0821A9108A108B10888EEF6
:100BC000C80E83E0D81EE11CF11C81149104A1041D
:100BD000B10429F7FF90EF90DF90CF90BF90AF90D6
:100BE0009F908F900895CF92DF92EF92FF92CF93D4
:100BF000DF93EC01603282E07807CCF5653B71054C
:100C000014F064EB70E0898128E830E0281B31099A
:100C100087FD3395220F331F220F331F6901330FD6
:100C2000EE08FF088A8128E532E0281B310987FD9C
:100C30003395220F331F220F331F032E000C440B5A
:100C4000550B2C193D094E095F09DB0177FF02C0E6
:100C5000B0E0A0E00E94DB1224EB30E040E050E086
:100C60000E94B112C20ED31EE41EF51EB601E88129
:100C7000E03370F5298188E890E0821B910927FD17
:100C80009395880F991F880F991F681779077CF033
:100C90002A8188E592E0821B910927FD9395880FB0
:100CA000991F880F991F681779070CF4CB010297D9
:100CB000880F991F4FB7F8942E2F30E0F901EE0FEF
:100CC000FF1FE20FF31FEA5DFC4F928381834FBF4A
:100CD000DF91CF91FF90EF90DF90CF9008951F9319
:100CE000CF93DF93EC01162F8881803308F04EC03C
:100CF00061E0812F0E9400048881282F30E0F901F3
:100D0000EE0FFF1FE20FF31FEA5DFC4F1F736081C0
:100D1000607C612B608319821A822CE0622F0E9412
:100D20004514829FB001112430E020E0AB01420F56
:100D3000531FFA01EE0FFF1FE40FF51FEA5DFC4F92
:100D4000908196FD16C02F5F3F4F2C30310571F713
:100D5000813009F51092800082E08093810010922A
:100D6000850010928400B19A80916F008260809318
:100D70006F00E8818E2F90E0FC01EE0FFF1FE80F5F
:100D8000F91FEA5DFC4F8081806480838881DF9158
:100D9000CF911F910895823061F41092900080935A
:100DA0009100109295001092940088BB809371007E
:100DB000E0CF833069F41092A00082E08093A1001C
:100DC0001092A5001092A40089BB80937200D1CF2D
:100DD0008111CFCF1092200182E0809321011092E7
:100DE0002501109224018ABB80937300C2CFAF9279
:100DF000BF92CF92DF92EF92FF920F931F93CF9308
:100E0000DF936B017A01EC01CF5DDC4F28813CE080
:100E1000389F8001399F100D1124A0902503B12C1B
:100E200027FF1FC0FB011182108288818F5F88839A
:100E300088819801280F311D87FD3A95F6012A1502
:100E40003B051CF488818C30C4F18081918104962B
:100E500080349C4908F473C0F60180819181049626
:100E600070C088819801280F311D87FD3A952A1599
:100E70003B05DCF68881A801480F511D87FD5A9576
:100E8000FA01EE0FFF1FE40FF51FEA5DFC4F8081B2
:100E900086FFCBCF8881F801E80FF11D87FDFA9519
:100EA000CF01EE0FFF1FE80FF91FEA5DFC4F8081B5
:100EB00060E08F730E94CE03B8CF8081918128813A
:100EC000A801420F511D27FD5A959A01FA01EE0F14
:100ED000FF1FE20FF31FEA5DFC4F21813281820F79
:100EE000931FF7019183808388819801280F311D1A
:100EF00087FD3A95F901EE0FFF1FE20FF31FEA5D40
:100F0000FC4F808186FF22C08881080F111D87FD5C
:100F10001A95F801EE0FFF1FE00FF11FEA5DFC4F7D
:100F2000808161E08F73DF91CF911F910F91FF90CE
:100F3000EF90DF90CF90BF90AF900C94CE0380E401
:100F40009CE9F701918380838FEF8883DF91CF91B4
:100F50001F910F91FF90EF90DF90CF90BF90AF90D7
:100F60000895089590E080E00895CF93DF938FE196
:100F700090E09093BE038093BD03C091BD03D091D8
:100F8000BE03C832D105A4F461E08C2F0E94CE03C9
:100F900062E370E080E090E00E94C10560E08C2F89
:100FA0000E94CE032296D093BE03C093BD03E5CF2B
:100FB00087E290E09093BE038093BD03C091BD0390
:100FC000D091BE03CF31D105A4F061E08C2F0E94F7
:100FD000CE0362E370E080E090E00E94C10560E033
:100FE0008C2F0E94CE032297D093BE03C093BD03E3
:100FF000E5CFDF91CF910895CF93DF9386EA9FEFFE
:1010000090931C0380931B03C0911B03D0911C037E
:10101000CB35D1058CF4BE018EEE94E00E94F30531
:101020006FE070E080E090E00E94C1052596D093CB
:101030001C03C0931B03E8CFDF91CF910895CF939A
:10104000DF938AE590E090931C0380931B03C0918B
:101050001B03D0911C03D7FD11C0BE018EEE94E09E
:101060000E94F30565E070E080E090E00E94C10519
:101070002597D0931C03C0931B03E9CFDF91CF9139
:101080000895CF93DF9386EA9FEF90931C0380939C
:101090001B03C0911B03D0911C03CB35D1058CF4ED
:1010A000BE0184EF94E00E94F3056FE070E080E001
:1010B00090E00E94C1052596D0931C03C0931B03AA
:1010C000E8CFDF91CF910895CF93DF938AE590E049
:1010D00090931C0380931B03C0911B03D0911C03AE
:1010E000D7FD11C0BE0184EF94E00E94F30565E0D6
:1010F00070E080E090E00E94C1052597D0931C032A
:10110000C0931B03E9CFDF91CF910895FB010190BC
:101110000020E9F73197AF01461B570BDC01ED9139
:10112000FC910280F381E02D19948F929F92AF92EF
:10113000BF92EF92FF920F931F93CF93DF93CDB7A0
:10114000DEB7A1970FB6F894DEBF0FBECDBF7C010E
:10115000FA01CB0119A2223008F42AE08E010F5DBA
:101160001F4F822E912CB12CA12CBF01A5019401FF
:101170000E94E312F901CA016A300CF5605DD801E2
:101180006E938D01232B242B252B79F790E080E0A3
:10119000109721F0BD01C7010E948608A1960FB6E5
:1011A000F894DEBF0FBECDBFDF91CF911F910F919D
:1011B000FF90EF90BF90AF909F908F900895695CE3
:1011C000DECFCF93DF93BC0186ED94E00E948608CA
:1011D000EC0160E472E086ED94E00E9486088C0FDA
:1011E0009D1FDF91CF9108950C948608CF93DF93D4
:1011F000EC0160E08E810E94CE0361E08E810E944E
:10120000CE0360E08E810E94CE038BE891E00197CF
:10121000F1F7DF91CF910895CF92DF92EF92FF9295
:101220000F931F93CF93DF936C017C0187E0E80E4F
:10123000F11CD0E0C0E0062F10E0B8010C2E02C077
:10124000759567950A94E2F76170F70181917F01C6
:101250000E94CE032196C430D10579F7C601DF91F3
:10126000CF911F910F91FF90EF90DF90CF900C9452
:10127000F608CF92DF92EF92FF920F931F93CF93D6
:10128000DF93EC01F62E642F8C810E94CE038D81BA
:101290008F3F19F060E00E94CE030F2D10E08F8584
:1012A00084FF25C06E0187E0C80ED11CF12CE12C13
:1012B000B8010E2C02C0759567950A94E2F761702B
:1012C000F60181916F010E94CE03FFEFEF1AFF0A32
:1012D00088E0E816F10461F7CE01DF91CF911F910C
:1012E0000F91FF90EF90DF90CF900C94F608B8012B
:1012F00084E0759567958A95E1F7CE010E940C0907
:101300006F2DCE01DF91CF911F910F91FF90EF9044
:10131000DF90CF900C940C0940E0682F86ED94E0AC
:101320000C94390981E00E948C098BE39FE10197BD
:10133000F1F70895CF93DF93823029F49091E5047B
:1013400098609093E5048093E9041092EA0480E4A5
:101350008093EB0480E18093EC0480E58093ED04BE
:1013600061E08091DA040E9400048091DB048F3FE9
:1013700019F061E00E94000461E08091DC040E94A9
:101380000004C6EDD4E09E01265D34408091E50462
:1013900084FD0BC084E090E021962817390744F4BF
:1013A00061E08E810E940004EECF88E090E0F4CFEF
:1013B0008BE39DE00197F1F760E08091DA040E94F1
:1013C000CE0360E08091DC040E94CE038091DB04B8
:1013D0008F3F19F060E00E94CE038091E50484FD08
:1013E00034C063E086ED94E00E940C09CBE4D6E4BF
:1013F000CE010197F1F763E086ED94E00E940C09BD
:101400002197F1F763E086ED94E00E940C0983E5F3
:1014100092E00197F1F762E086ED94E00E940C09FA
:101420008091E50480620E948C0984E08093E60448
:101430008CE00E948C090E94920982E08093E7046C
:1014400086E0DF91CF910C948C0980620E948C0918
:101450008BE496E40197F1F78091E50480620E94A5
:101460008C0983E592E00197F1F78091E5048062B1
:101470000E948C09D5CF9091E904691710F06FEFA5
:10148000690FE62FF0E0EA52FB4F9489890F8068DC
:101490000C948C090E94920960E080E00E943B0A53
:1014A00063E472E086ED94E00E94F40861E080E07D
:1014B0000E943B0A62E572E086ED94E00E94F40827
:1014C00068EC70E080E090E00C94C1050E94920905
:1014D00060E080E00E943B0A6EE572E086ED94E0F9
:1014E0000E94F40861E080E00E943B0A64EC72E034
:1014F00086ED94E00C94F4080E94920960E080E08C
:101500000E943B0A6DE672E086ED94E00E94F408CA
:1015100064EF71E080E090E00C94C1050E949209B4
:1015200060E080E00E943B0A60E872E086ED94E0B3
:101530000E94F40864EF71E080E090E00E94C10531
:101540000E9492096DE872E086ED94E00E94F40832
:1015500061E080E00E943B0A64EC72E086ED94E07A
:101560000C94F4080E94920960E080E00E943B0A1B
:101570006DE872E086ED94E00E94F4080E94970501
:101580008093C303882381F061E080E00E943B0ADE
:101590006CE572E086ED94E00E94F40865E070E08E
:1015A00080E090E00E94C1058091C303882361F030
:1015B00080931A0361E081E00E943B0A6CE572E0CF
:1015C00086ED94E00E94F4080E9497058093C3037F
:1015D000882361F08093190361E082E00E943B0A56
:1015E0006CE572E086ED94E00E94F4080E94970595
:1015F0008093C303882361F08093180361E083E044
:101600000E943B0A6CE572E086ED94E00E94F408CB
:101610000E9497058093C3038A3299F561E084E0C4
:101620000E943B0A6CE572E086ED94E00E94F408AB
:1016300020911A03022E000C330B2053310944E68B
:10164000429FC001439F900D112420911903022E47
:10165000000C330B205331096AE0629FA001639FA5
:10166000500D1124840F951F20911803022E000C99
:10167000330B20533109820F931F9093C203809341
:10168000C10308950E94920960E080E00E943B0A35
:1016900069E472E086ED94E00E94F4080E949705E8
:1016A0008093C303882361F08093170361E080E097
:1016B0000E943B0A6CE572E086ED94E00E94F4081B
:1016C0000E9497058093C303882361F080931603DB
:1016D00061E081E00E943B0A6CE572E086ED94E0F7
:1016E0000E94F4080E9497058093C303882361F049
:1016F0008093150361E082E00E943B0A6CE572E092
:1017000086ED94E00E94F4080E9497058093C3033D
:10171000882361F08093140361E083E00E943B0A18
:101720006CE572E086ED94E00E94F4080E94970553
:101730008093C303882361F08093130361E084E006
:101740000E943B0A6CE572E086ED94E00E94F4088A
:101750000E9497058093C303882361F0809312034E
:1017600061E085E00E943B0A6CE572E086ED94E062
:101770000E94F4080E9497058093C3038A3209F0FF
:1017800069C061E086E00E943B0A6CE572E086ED8C
:1017900094E00E94F40820911703022E000C330BF2
:1017A0002053310940EA56E8249FC001259F900D3F
:1017B000349F900D112420911603022E000C330B40
:1017C0002053310960E177E2269FA001279F500D49
:1017D000369F500D1124840F951F20911503022E62
:1017E000000C330B2053310968EE73E0269FA001F3
:1017F000279F500D369F500D1124840F951F209167
:101800001403022E000C330B2053310964E6629F4F
:10181000A001639F500D1124840F951F2091130385
:10182000022E000C330B205331096AE0629FA001A5
:10183000639F500D1124840F951F20911203022ED7
:10184000000C330B20533109820F931F9093C00378
:101850008093BF03089541E00E94390981E090E040
:101860000895CF92DF92EF92FF92CF93DF930E9481
:10187000B507C5E0D0E061E085E10E94CE0362E3F8
:1018800070E080E090E00E94C10560E085E10E9488
:10189000CE0362E370E080E090E00E94C1052197F2
:1018A00051F70E9492090E94920960E080E00E9434
:1018B0003B0A66E972E086ED94E00E94F40864EF6A
:1018C00071E080E090E00E94C1050E9492098EE1E3
:1018D000C82ED12CE12CF12C86EA92E00E94E1087E
:1018E00061E084E00E943B0A2AE0B701A60186ED90
:1018F00094E00E94950864E670E080E090E00E9429
:10190000C1050E94920981E0C81AD108E108F108D6
:1019100019F70E94920960E080E00E943B0A63EBA5
:1019200072E086ED94E00E94F40861E080E00E949D
:101930003B0A60EC72E086ED94E00E94F40810929D
:10194000C5031092C403DF91CF91FF90EF90DF9019
:10195000CF900895CF92DF92EF92FF920F931F9353
:10196000CF93DF938EE190E09093BC038093BB0311
:10197000C091BB03D091BC03C732D105A4F461E090
:101980008C2F0E94CE0362E370E080E090E00E9422
:10199000C10560E08C2F0E94CE032296D093BC0339
:1019A000C093BB03E5CF86E290E09093BC038093A5
:1019B000BB03C091BB03D091BC03CE31D105A4F0D1
:1019C00061E08C2F0E94CE0362E370E080E090E043
:1019D0000E94C10560E08C2F0E94CE032297D09315
:1019E000BC03C093BB03E5CF0E94920960E080E096
:1019F0000E943B0A6DEC72E086ED94E00E94F408D0
:101A000068EE73E080E090E00E94C10560E08DE048
:101A10000E94CE0383E090E00197F1F761E08DE052
:101A20000E94CE0383E290E00197F1F760E08DE041
:101A30000E94CE03E0E0F2E06491EAEBF1E0E49191
:101A4000F0E0EE0FFF1FEC56FE4F8591949100E4FD
:101A500012E42FE030E0462F0E94600F61157105FF
:101A60008105910529F06F5F7F4F8F4F9F4F9F70CA
:101A70000E944C1326E933E44BE05DE30E94B0136F
:101A800020E030E040E05FE30E94B0130E941413B6
:101A900060931D0370931E0380931F039093200394
:101AA0006BED72E08AEC93E00E94F408C0901D0395
:101AB000D0901E03E0901F03F09020032AE0B701AE
:101AC000A601F7FE0DC06DE28AEC93E00E9466026B
:101AD00044275527BA014C195D096E097F092AE090
:101AE0008AEC93E00E94950860E472E08AEC93E04F
:101AF0000E94860883E290E00197F1F780911D0330
:101B000090911E03A0911F03B09120034497A1055B
:101B1000B1050CF04DC0C4E0D0E061E080E30E946C
:101B2000CE0362E370E080E090E00E94C10560E0D7
:101B300080E30E94CE03219781F78AE590E090939D
:101B40001C0380931B03C0911B03D0911C03D7FD82
:101B500011C0BE0181EF94E00E94F30565E070E0E2
:101B600080E090E00E94C1052597D0931C03C093AC
:101B70001B03E9CF86EA9FEF90931C0380931B031E
:101B8000C0911B03D0911C03CB35D1058CF4BE0151
:101B900081EF94E00E94F3056FE070E080E090E058
:101BA0000E94C1052596D0931C03C0931B03E8CF68
:101BB0000E94920960E080E00E943B0A66EE72E0BB
:101BC00086ED94E00E94F4080E9464080E941F08B9
:101BD0008AE00E94A2030197D9F70E94FC070E94A5
:101BE00041081092C5031092C403DF91CF911F9159
:101BF0000F91FF90EF90DF90CF9008951F920F927A
:101C00000FB60F9211240BB60F922F933F934F9361
:101C10005F936F937F938F939F93AF93BF93EF9354
:101C2000FF938AEC93E00E944402FF91EF91BF91F1
:101C3000AF919F918F917F916F915F914F913F9164
:101C40002F910F900BBE0F900FBE0F901F90189505
:101C50001F920F920FB60F9211240BB60F922F9373
:101C60008F939F93EF93FF93E091DA03F091DB035F
:101C70008081E091E003F091E10382FD1DC090813D
:101C80008091E3038F5F8F732091E403821741F00B
:101C9000E091E303F0E0E653FC4F958F8093E3037C
:101CA000FF91EF919F918F912F910F900BBE0F900D
:101CB0000FBE0F901F9018958081F2CF1F920F9248
:101CC0000FB60F9211242F933F938F939F93AF934F
:101CD000BF938091C6039091C703A091C803B091B0
:101CE000C9033091B60323E0230F2D3758F5019631
:101CF000A11DB11D2093B6038093C6039093C70323
:101D0000A093C803B093C9038091B7039091B8031F
:101D1000A091B903B091BA030196A11DB11D8093A2
:101D2000B7039093B803A093B903B093BA03BF91DC
:101D3000AF919F918F913F912F910F900FBE0F9078
:101D40001F90189526E8230F0296A11DB11DD2CF32
:101D50001F920F920FB60F9211240BB60F922F9372
:101D60003F934F935F936F937F938F939F93AF9323
:101D7000BF93EF93FF9348E251E064E271E090E09B
:101D800080E00E94F706FF91EF91BF91AF919F9184
:101D90008F917F916F915F914F913F912F910F9014
:101DA0000BBE0F900FBE0F901F9018951F920F92B1
:101DB0000FB60F9211240BB60F922F933F934F93B0
:101DC0005F936F937F938F939F93AF93BF93EF93A3
:101DD000FF9348EA50E064EA70E083E090E00E94FC
:101DE000F706FF91EF91BF91AF919F918F917F91F6
:101DF0006F915F914F913F912F910F900BBE0F907C
:101E00000FBE0F901F9018951F920F920FB60F9252
:101E100011240BB60F922F933F934F935F936F93C1
:101E20007F938F939F93AF93BF93EF93FF9348E973
:101E300050E064E970E082E090E00E94F706FF91D4
:101E4000EF91BF91AF919F918F917F916F915F9132
:101E50004F913F912F910F900BBE0F900FBE0F909F
:101E60001F9018951F920F920FB60F9211240BB668
:101E70000F922F933F934F935F936F937F938F9323
:101E80009F93AF93BF93EF93FF9348E850E064E8CC
:101E900070E081E090E00E94F706FF91EF91BF9122
:101EA000AF919F918F917F916F915F914F913F91F2
:101EB0002F910F900BBE0F900FBE0F901F90189593
:101EC000CF92DF92EF92FF920F931F93E82FF92F9B
:101ED00005C0015011092109310961F19081962352
:101EE0009417B9F305C0015011092109310911F105
:101EF000908196239413F7CFC12CD12CE12CF12C97
:101F00000AC08FEFC81AD80AE80AF80A0C151D058E
:101F10002E053F0579F080818623841791F36C2D7F
:101F20007D2D8E2D9F2D1F910F91FF90EF90DF90B3
:101F3000CF90089560E070E080E090E01F910F91F5
:101F4000FF90EF90DF90CF900895FC0190912503D2
:101F5000903398F481E0890F809325039083892F33
:101F600090E0FC01EE0FFF1FE80FF91FEA5DFC4F48
:101F700088EB9BE09283818308958FEF808308959F
:101F80001092CD031092CC0388EE93E0A0E0B0E075
:101F90008093CE039093CF03A093D003B093D1034B
:101FA0008CE192E09093CB038093CA0385EC90E0A0
:101FB0009093D7038093D60384EC90E09093D90359
:101FC0008093D80380EC90E09093DB038093DA0356
:101FD00081EC90E09093DD038093DC0382EC90E051
:101FE0009093DF038093DE0386EC90E09093E1030F
:101FF0008093E0031092E3031092E4031092E50350
:102000001092E60384EF94E00E94A50F81EF94E024
:102010000E94A50F8EEE94E00E94A50F1092D904A5
:102020001092D80488E392E09093D7048093D6046A
:1020300088E18093DA048FEF8093DB0489E1809359
:10204000DC048AE18093DD048BE18093DE048CE183
:102050008093DF048DE18093E0041092E1041092FC
:10206000E2041092E3041092E4041092E50481E08B
:102070000E949A091092690410926D0410926C04E7
:1020800010926E048EE292E090936804809367044D
:10209000E3E8F4E01082148213821582369684E01D
:1020A000EF3BF807B9F784E092E09093CA0480937D
:1020B000C90480E092E09093CC048093CB0484E048
:1020C0008093CD048093CE0488E092E09093C8047E
:1020D0008093C7048AE090E09093D0048093CF046B
:1020E00084EF91E09093D2048093D1041092D504B0
:1020F0001092D4041092C3041092C4041092C50428
:102100001092C6041092D3040895789484B5826026
:1021100084BD84B5816084BD85B5826085BD85B58B
:10212000816085BD80916E00816080936E00109209
:102130008100809181008260809381008091810084
:102140008160809381008091800081608093800015
:102150008091B10084608093B1008091B000816073
:102160008093B00080919100826080939100809173
:1021700091008160809391008091900081608093B4
:1021800090008091A10082608093A1008091A100C5
:1021900081608093A1008091A00081608093A00065
:1021A00080912101826080932101809121018160D1
:1021B0008093210180912001816080932001809192
:1021C0007A00846080937A0080917A0082608093A4
:1021D0007A0080917A00816080937A0080917A0001
:1021E000806880937A001092C10069E070E084EF0B
:1021F00094E00E946F0661E370E081EF94E00E943A
:102200006F0668E070E08EEE94E00E946F0682E058
:102210000E949A0961E085E10E94000460E08AE082
:102220000E94000461E08DE00E94000460E08CE008
:102230000E94000461E080E30E9400048FE190E0CE
:102240009093BE038093BD03C091BD03D091BE03A4
:10225000C832D10554F461E08C2F0E94000422960C
:10226000D093BE03C093BD03EFCF8EE190E0909377
:10227000BC038093BB03C091BB03D091BC03C732A6
:10228000D1050CF457C0EE24E394F12C8091C403E3
:102290009091C503892B81F460E080E00E943B0AA5
:1022A0008FEE92E00E94E10861E081E00E943B0A2B
:1022B00080E093E00E94E1080E9440048093C30301
:1022C000833211F5F092C503E092C4030E94B20A72
:1022D0008091C1039091C2030197039708F096C0C3
:1022E0000E944A0A0E94420B8091BF039091C00352
:1022F0008E3727E3920741F58091C1039091C20385
:10230000019761F50E94AA0C8BE00E94A20301973D
:1023100071F40E9464080E941F0860E273E080E08C
:1023200090E00E94C1050E94FC070E9441080E94A3
:10233000DD02ACCF61E08C2F0E9400042296D09386
:10234000BC03C093BB0397CF833829E6920791F56E
:102350008091C1039091C2030297A1F20E947C0A6E
:102360000E94B5070E94660A64EF71E080E090E089
:102370000E94C105D0E0C0E00E94420B8091BF03E3
:102380009091C0038E3727E39207F9F48091C1033F
:102390009091C203019719F50E94AA0CC2E0D0E007
:1023A0002196C130D10541F3229709F0ADCF0E94AB
:1023B000310CAACF85329C4089F68091C10390915F
:1023C000C203039709F49ECFC9CF833829E6920749
:1023D00099F48091C1039091C2030297E9F20E949F
:1023E0007C0A0E94B5070E94660A64EF71E080E0F3
:1023F00090E00E94C105D4CF85329C4081F7809146
:10240000C1039091C203039751F7C6CF0E948E0A71
:102410000E94B50764E670E080E090E00E94C1058C
:10242000D0E0C0E0C230D1050CF06ECF0E94400475
:102430008093C3038332B1F70E94B20A8091C10333
:102440009091C2030197039708F080C00E944A0A46
:102450000E94420B8091BF039091C0038E3727E307
:10246000920789F48091C1039091C2030197A9F466
:102470000E94AA0CC2E0D0E02196C230D10591F6AC
:102480000E94310CCFCF833829E6920799F58091CD
:10249000C1039091C203029759F30E947C0A0E94E3
:1024A000B5070E94660A64EF71E080E090E00E9448
:1024B000C10510E000E00E94420B8091BF039091A3
:1024C000C0038E3727E3920701F58091C1039091F5
:1024D000C203019721F50E94AA0C02E010E00F5FF1
:1024E0001F4F0130110539F30230110529F60E9402
:1024F000310CC2CF85329C4081F68091C10390910E
:10250000C203039709F4B4CFC8CF833829E69207F2
:1025100099F48091C1039091C2030297E1F20E9465
:102520007C0A0E94B5070E94660A64EF71E080E0B1
:1025300090E00E94C105D3CF85329C4081F7809105
:10254000C1039091C203039751F7C5CF0E948E0A31
:102550000E94B50764EF71E080E090E00E94C10541
:102560008BCF052E97FB1EF400940E94C81257FDD6
:1025700007D00E94E31207FC03D04EF40C94C8125B
:1025800050954095309521953F4F4F4F5F4F08959F
:1025900090958095709561957F4F8F4F9F4F0895CF
:1025A0000E940513A59F900DB49F900DA49F800DD0
:1025B000911D11240895B7FF0C94D0120E94D012DF
:1025C000821B930B0895A1E21A2EAA1BBB1BFD01CF
:1025D0000DC0AA1FBB1FEE1FFF1FA217B307E40702
:1025E000F50720F0A21BB30BE40BF50B661F771F5A
:1025F000881F991F1A9469F760957095809590953A
:102600009B01AC01BD01CF010895A29FB001B39F12
:10261000C001A39F700D811D1124911DB29F700DEB
:10262000811D1124911D08950E941B136894B111FE
:102630000C94AA1308950E948F1388F09F5798F066
:10264000B92F9927B751B0F0E1F0660F771F881FB7
:10265000991F1AF0BA95C9F714C0B13091F00E94D1
:10266000A913B1E008950C94A913672F782F882738
:10267000B85F39F0B93FCCF3869577956795B395F8
:10268000D9F73EF490958095709561957F4F8F4F67
:102690009F4F0895E89409C097FB3EF4909580956C
:1026A000709561957F4F8F4F9F4F9923A9F0F92F18
:1026B00096E9BB279395F695879577956795B79596
:1026C000F111F8CFFAF4BB0F11F460FF1BC06F5F7C
:1026D0007F4F8F4F9F4F16C0882311F096E911C08E
:1026E000772321F09EE8872F762F05C0662371F0AF
:1026F00096E8862F70E060E02AF09A95660F771FC3
:10270000881FDAF7880F9695879597F9089557FDF2
:102710009058440F551F59F05F3F71F04795880F4F
:1027200097FB991F61F09F3F79F0879508951216E6
:1027300013061406551FF2CF4695F1DF08C0161692
:1027400017061806991FF1CF869571056105089443
:102750000895E894BB2766277727CB0197F908955A
:102760000E94C3130C9434140E94261438F00E9463
:102770002D1420F0952311F00C941D140C942314A7
:1027800011240C94AA130E94871370F3959FC1F330
:10279000950F50E0551F629FF001729FBB27F00D0F
:1027A000B11D639FAA27F00DB11DAA1F649F662764
:1027B000B00DA11D661F829F2227B00DA11D621FB3
:1027C000739FB00DA11D621F839FA00D611D221F6D
:1027D000749F3327A00D611D231F849F600D211D51
:1027E000822F762F6A2F11249F5750409AF0F1F0D4
:1027F00088234AF0EE0FFF1FBB1F661F771F881F3D
:1028000091505040A9F79E3F510580F00C941D1443
:102810000C94AA135F3FE4F3983ED4F38695779522
:102820006795B795F795E7959F5FC1F7FE2B880FE2
:10283000911D9695879597F9089597F99F6780E878
:1028400070E060E008959FEF80EC089500240A9402
:102850001616170618060906089500240A9412167B
:102860001306140605060895092E0394000C11F4AE
:10287000882352F0BB0F40F4BF2B11F460FF04C05B
:102880006F5F7F4F8F4F9F4F0895991B79E004C072
:10289000991F961708F0961B881F7A95C9F780959F
:1028A0000895EE0FFF1F881F8BBF0790F691E02D54
:1028B0001994F894FFCF0506070003020100313296
:1028C000330034353600373839002A302300000011
:1028D000000066020E030702B302380216022A0243
:1028E000000000003C04FC03CB03000000002B0CA4
:1028F0000E03B207B1070D0A00456E7465722050D1
:10290000617373776F726400616E642070726573B7
:1029100073202A00456E7465722070617373776F3F
:1029200072640057726F6E6720706173736F777295
:1029300064202121210057726F6E672049442021B5
:10294000212100456E74657220494400416674651A
:102950007220636F756E74646F776E00576169746F
:1029600020666F72203330730041636365732044C7
:10297000656E6965640054727920416761696E20F3
:102980002121005573652053616E6974697A6572FF
:102990000044697374616E63653A2000556E6C6F14
:1029A000636B6564002057656C636F6D65212E4510
:1029B0006E746572200020494420616E642050725C
:0829C000657373202A2000005A
:020000040003F7
:10E000000D9489F10D94B2F10D94B2F10D94B2F129
:10E010000D94B2F10D94B2F10D94B2F10D94B2F1F0
:10E020000D94B2F10D94B2F10D94B2F10D94B2F1E0
:10E030000D94B2F10D94B2F10D94B2F10D94B2F1D0
:10E040000D94B2F10D94B2F10D94B2F10D94B2F1C0
:10E050000D94B2F10D94B2F10D94B2F10D94B2F1B0
:10E060000D94B2F10D94B2F10D94B2F10D94B2F1A0
:10E070000D94B2F10D94B2F10D94B2F10D94B2F190
:10E080000D94B2F10D94B2F10D94B2F10D94B2F180
:10E090000D94B2F10D94B2F10D94B2F10D94B2F170
:10E0A0000D94B2F10D94B2F10D94B2F10D94B2F160
:10E0B0000D94B2F10D94B2F10D94B2F10D94B2F150
:10E0C0000D94B2F10D94B2F10D94B2F10D94B2F140
:10E0D0000D94B2F10D94B2F10D94B2F10D94B2F130
:10E0E0000D94B2F141546D656761323536300041AF
:10E0F000726475696E6F206578706C6F72657220DE
:10E1000073746B3530305632206279204D4C530099
:10E11000426F6F746C6F616465723E004875683F52
:10E1200000436F6D70696C6564206F6E203D200048
:10E130004350552054797065202020203D20005FF9
:10E140005F4156525F415243485F5F3D2000415658
:10E1500052204C696243205665723D20004743437C
:10E160002056657273696F6E203D20004350552024
:10E1700049442020202020203D20004C6F7720663D
:10E18000757365202020203D20004869676820665F
:10E190007573652020203D200045787420667573D6
:10E1A00065202020203D20004C6F636B2066757336
:10E1B000652020203D20004D617220203720323024
:10E1C000313300312E362E3800342E332E350056A2
:10E1D00023202020414444522020206F7020636F70
:10E1E00064652020202020696E73747275637469E1
:10E1F0006F6E2061646472202020496E74657272B3
:10E20000757074006E6F20766563746F7200726A49
:10E210006D702020006A6D70200057686174207056
:10E220006F72743A00506F7274206E6F7420737541
:10E2300070706F72746564004D7573742062652030
:10E2400061206C6574746572002000577269747483
:10E25000696E672045450052656164696E672045B7
:10E26000450045452065727220636E743D00504F35
:10E27000525400303D5A65726F2061646472003FF1
:10E280003D43505520737461747300403D454550C3
:10E29000524F4D207465737400423D426C696E6B41
:10E2A000204C454400453D44756D70204545505215
:10E2B0004F4D00463D44756D7020464C415348001B
:10E2C000483D48656C70004C3D4C69737420492F83
:10E2D0004F20506F72747300513D51756974005234
:10E2E0003D44756D702052414D00563D73686F7707
:10E2F00020696E7465727275707420566563746FF0
:10E30000727300593D506F727420626C696E6B00BD
:10E310002A0011241FBECFEFD1E2DEBFCDBF01E046
:10E320000CBF12E0A0E0B2E0EEE1FDEF03E00BBFB6
:10E3300002C007900D92A030B107D9F712E0A0E01B
:10E34000B2E001C01D92AE30B107E1F70F9460F367
:10E350000D948DFE01E20EBF0FEF0DBF11241FBE05
:10E360000D9460F30D9400F020E030E040ED57E0B4
:10E3700005C0FA013197F1F72F5F3F4F2817390792
:10E38000C0F308959C01260F311DC901A0E0B0E043
:10E390002F5F3F4FABBFFC018791882361F08093D3
:10E3A000C6008091C00086FFFCCF8091C0008064D1
:10E3B0008093C000EACF08958DE08093C6008091DD
:10E3C000C00086FFFCCF8091C00080648093C000B5
:10E3D0008AE08093C6008091C00086FFFCCF8091C8
:10E3E000C00080648093C00008950F94C2F10F9420
:10E3F000DCF10895FC019081992359F09093C600B7
:10E400008091C00086FFFCCF8091C0008064809323
:10E41000C0003196992379F70895282F982F929567
:10E420009F70892F805D8A3308F0895F8093C600D2
:10E430008091C00086FFFCCF8091C00080648093F3
:10E44000C000822F8F70982F905D9A3308F0995FEB
:10E450009093C6008091C00086FFFCCF8091C000E1
:10E4600080648093C00008959C01FB01853691056E
:10E470001CF46330710594F0C90164E670E00F94F8
:10E480002EFE605D7F4F6093C6008091C00086FFC6
:10E49000FCCF8091C00080648093C0002B30310598
:10E4A00014F43297B4F0C90164E670E00F942EFEC4
:10E4B0006AE070E00F942EFE605D7F4F6093C600AF
:10E4C0008091C00086FFFCCF8091C0008064809363
:10E4D000C000C9016AE070E00F942EFEC0968093E0
:10E4E000C6008091C00086FFFCCF8091C000806490
:10E4F0008093C00008951F93182F8EE692EE60E07F
:10E500000F94C2F11093C6008091C00086FFFCCF2B
:10E510008091C00080648093C0000F94DCF11F9153
:10E5200008952F923F924F925F926F927F928F92B7
:10E530009F92AF92BF92CF92DF92EF92FF920F9392
:10E540001F93DF93CF93CDB7DEB762970FB6F894E2
:10E55000DEBF0FBECDBF382E622ECA01DB015C01CB
:10E560006D01772420E2222E2E010894411C511CBB
:10E570008BC081E0A81680E0B80681E0C80680E084
:10E58000D80628F0C601AA27BB270F940DF2BB2797
:10E59000AD2D9C2D8B2D0F940DF28A2D0F940DF225
:10E5A0002092C6008091C00086FFFCCF8091C00001
:10E5B00080648093C0009DE29093C6008091C0006B
:10E5C00086FFFCCF8091C00080648093C0002092C1
:10E5D000C6008091C00086FFFCCF8091C00080649F
:10E5E0008093C00019828601750188249924A1E0D6
:10E5F0003A1651F03A1620F0B2E03B1661F409C029
:10E600000BBFF701779007C0C7010F9477FE782EF4
:10E6100002C0F7017080872D0F940DF22092C60082
:10E620008091C00086FFFCCF8091C0008064809301
:10E63000C000872D8052F401EF70F0708F3520F408
:10E64000E40DF51D708204C0E40DF51D8EE280839B
:10E650000894E11CF11C011D111D0894811C911CE2
:10E6600090E18916910409F0C2CF80E190E0A0E02A
:10E67000B0E0A80EB91ECA1EDB1E198AC2010F9493
:10E68000FAF10F94DCF16A94662009F072CF629679
:10E690000FB6F894DEBF0FBECDBFCF91DF911F91B3
:10E6A0000F91FF90EF90DF90CF90BF90AF909F9031
:10E6B0008F907F906F905F904F903F902F90089534
:10E6C0002F923F924F925F926F927F928F929F9282
:10E6D000AF92BF92CF92DF92EF92FF920F931F9370
:10E6E000DF93CF93CDB7DEB7CD53D1400FB6F894BB
:10E6F000DEBF0FBECDBF01E20EBF0FEF0DBF94B75F
:10E70000F894A89514BE80916000886180936000A1
:10E7100010926000789493FF05C0E0910002F091A0
:10E7200001021995279A2F9A8091C00082608093E8
:10E73000C00080E18093C40088E18093C1000000A4
:10E74000EE24FF24870144E0A42EB12CCC24DD2448
:10E7500024C0C5010197F1F70894E11CF11C011DCB
:10E76000111D21E2E2162EE4F20620E0020720E06D
:10E77000120718F031E0C32ED12CC801B70127ECE5
:10E780003BE140E050E00F9441FE611571058105C9
:10E79000910519F485B1805885B98091C00087FD35
:10E7A00003C0C114D104A9F2A6014F5F5F4FC25E3E
:10E7B000DE4F59834883CE51D140C25EDE4F8881FF
:10E7C0009981CE51D140019711F00D9410FEC05D9A
:10E7D000DE4F19821882C053D14060E0C15DDE4F28
:10E7E0001882CF52D14088249924C35DDE4F19820C
:10E7F0001882CD52D140C05EDE4F188219821A8233
:10E800001B82C052D140CE5CDE4F188219821A8220
:10E810001B82C253D140EE24FF2487010BBFF701B6
:10E8200007911691C45CDE4F19830883CC53D14005
:10E830000D940BFEC25EDE4F28813981CE51D1404E
:10E840002130310509F52091C600C25EDE4F1982E4
:10E850001882CE51D14022C02F5F3F4F4F4F5F4FA4
:10E86000213082E138078AE7480780E0580780F0C6
:10E87000C45CDE4FE881F981CC53D140EF5FFF4F9C
:10E8800019F0EE27FF27099420E030E040E050E047
:10E890008091C00087FFE0CF2091C600C35DDE4FAE
:10E8A00048815981CD52D1404F5F5F4FC35DDE4FEC
:10E8B00059834883CD52D140213209F063C64A3092
:10E8C000510508F05FC60894811C911C53E0851621
:10E8D000910409F059C600E010E018C081E280936D
:10E8E000C6008091C00086FFFCCF8091C00080648C
:10E8F0008093C0002F5F3F4F2931310579F70F9486
:10E90000DCF10F5F1F4F0530110519F020E030E0FA
:10E91000E5CF10920A0210920B0210920C02109294
:10E920000D02109206021092070210920802109235
:10E930000902109202021092030210920402109235
:10E9400005028FEE90EE60E00F94F5F180E191EE1C
:10E9500060E00F94C2F18091C00087FFFCCF9091DE
:10E96000C600903608F09F759032B8F09093C600BC
:10E970008091C00086FFFCCF8091C00080648093AE
:10E98000C000A0E2A093C6008091C00086FFFCCF2B
:10E990008091C00080648093C000983409F4D7C18E
:10E9A0009934B8F4923409F459C1933458F490333B
:10E9B00019F1903308F4E3C59F33A1F1903409F0C5
:10E9C000DEC5BDC0953409F470C1963409F0D7C5D1
:10E9D00098C1923509F42BC2933538F49C3409F46C
:10E9E000F5C1913509F0CBC518C2963509F445C279
:10E9F000993509F0C4C567C483E792EE62E00F94CD
:10EA0000F5F110920602109207021092080210927D
:10EA1000090210920A0210920B0210920C0210923C
:10EA20000D0213C18FE792EE62E00F94F5F18FEEC5
:10EA300090EE60E00F94F5F181E291EE60E00F94CA
:10EA4000C2F187EB91EE60E00F94F5F180E391EE77
:10EA500060E00F94C2F184EE90EE60E00F94F5F167
:10EA60008FE391EE60E00F94C2F186E090E061E008
:10EA700070E00F9434F20F94DCF18DE591EE60E0DC
:10EA80000F94C2F189EC91EE60E00F94F5F18EE401
:10EA900091EE60E00F94C2F183EC91EE60E00F9490
:10EAA000F5F18CE691EE60E00F94C2F18EE10F94E7
:10EAB0000DF288E90F940DF281E00F940DF20F949E
:10EAC000DCF18BE791EE60E00F94C2F119E0E0E039
:10EAD000F0E010935700E4918E2F0F940DF20F94F5
:10EAE000DCF18AE891EE60E00F94C2F1E3E0F0E03F
:10EAF00010935700E4918E2F0F940DF20F94DCF1D8
:10EB000089E991EE60E00F94C2F1E2E0F0E0109349
:10EB10005700E4918E2F0F940DF20F94DCF188EAE8
:10EB200091EE60E00F94C2F1E1E0F0E01093570045
:10EB30001491812F0F940DF20F94DCF107CF8BE825
:10EB400092EE62E00F94F5F18BE492EE60E00F94A8
:10EB5000F5F10F94DCF100E010E019C0C8016F2D51
:10EB60000F947FFEFF2031F489E492EE60E00F9471
:10EB7000C2F10BC0F092C6008091C00086FFFCCFAE
:10EB80008091C00080648093C0000F5F1F4FC80158
:10EB900081519F41A0E0B0E0ABBFFC01F790BAE229
:10EBA000FB1621F0E2E000301E07C1F60F94DCF105
:10EBB0000F94DCF187E592EE60E00F94F5F10F948D
:10EBC000DCF1CC24DD2400E010E01EC0C8010F946D
:10EBD00077FEF82E882331F489E492EE60E00F94FA
:10EBE000C2F10BC08093C6008091C00086FFFCCFAD
:10EBF0008091C00080648093C000FE1419F00894D6
:10EC0000C11CD11C0F5F1F4FC80181519F41A0E063
:10EC1000B0E0ABBFFC01E790FAE2EF1621F022E092
:10EC20000030120799F60F94DCF10F94DCF182E6C4
:10EC300092EE60E00F94C2F1C60161E070E00F94C3
:10EC400034F20F94DCF10F94DCF110920202109276
:10EC50000302109204021092050278CE89E992EE26
:10EC600062E00F94F5F1279A2F9A16C02F9880E052
:10EC700090E0E0EDF7E03197F1F7019684369105E9
:10EC8000C1F72F9A80E090E0E0EDF7E03197F1F7DF
:10EC9000019684369105C1F78091C00087FFE6CFC9
:10ECA0008091C00087FFFCCF64C485EA92EE62E0E9
:10ECB0000F94F5F140910202509103026091040219
:10ECC0007091050281E020E10F9491F2809102029F
:10ECD00090910302A0910402B091050280509F4FD1
:10ECE000AF4FBF4F8093020290930302A0930402A0
:10ECF000B093050280509041A040B04008F426CE69
:10ED0000A4CF83EB92EE62E00F94F5F140910602FE
:10ED100050910702609108027091090280E020E1A1
:10ED20000F9491F28091060290910702A09108023F
:10ED3000B091090280509F4FAF4FBF4F80930602A2
:10ED400090930702A0930802B0930902FFCD80ECD4
:10ED500092EE62E00F94F5F183E792EE60E00F949B
:10ED6000F5F18FE792EE60E00F94F5F18BE892EE0B
:10ED700060E00F94F5F189E992EE60E00F94F5F10F
:10ED800085EA92EE60E00F94F5F183EB92EE60E09D
:10ED90000F94F5F180EC92EE60E00F94F5F187ECC2
:10EDA00092EE60E00F94F5F188ED92EE60E00F9442
:10EDB000F5F18FED92EE60E00F94F5F18AEE92EEB0
:10EDC00060E00F94F5F183E093EEBDCD87EC92EE19
:10EDD00062E00F94F5F181E40F947BF282E40F94EA
:10EDE0007BF283E40F947BF284E40F947BF285E45E
:10EDF0000F947BF286E40F947BF287E40F947BF20E
:10EE000088E40F947BF28AE40F947BF28BE40F94F6
:10EE10007BF28CE40F947BF299CD88ED92EE62E068
:10EE20000F94F5F1772473948824992409C48FED05
:10EE300092EE62E00F94F5F140910A0250910B02BC
:10EE400060910C0270910D0282E020E10F9491F22A
:10EE500080910A0290910B02A0910C02B0910D02D8
:10EE600080509F4FAF4FBF4F80930A0290930B0289
:10EE7000A0930C02B0930D0269CD8AEE92EE62E08F
:10EE80000F94F5F184EE90EE60E00F94F5F18FECC5
:10EE900091EE60E00F94F5F1662477244301CC5D98
:10EEA000DE4F19821882C452D140D401C301B695F5
:10EEB000A79597958795CA5DDE4F88839983AA8326
:10EEC000BB83C652D140CC5DDE4FA881B981C4520C
:10EED000D1401196CC5DDE4FB983A883C452D14096
:10EEE000CD0162E070E00F9434F2B0E2B093C6005E
:10EEF0008091C00086FFFCCF8091C0008064809329
:10EF0000C000EDE2E093C6008091C00086FFFCCF18
:10EF10008091C00080648093C000F0E2F093C6004E
:10EF20008091C00086FFFCCF8091C00080648093F8
:10EF3000C000CA5DDE4FE880F9800A811B81C6529D
:10EF4000D140BB27A12F902F8F2D0F940DF2CA5DBA
:10EF5000DE4F8881C652D1400F940DF2B0E2FB2EF5
:10EF6000F092C6008091C00086FFFCCF8091C00067
:10EF700080648093C0000DE30093C6008091C000C0
:10EF800086FFFCCF8091C00080648093C00010E2B7
:10EF90001093C6008091C00086FFFCCF8091C00016
:10EFA00080648093C0008BBEF3012791C65DDE4F65
:10EFB0002883CA52D140A22EBB24CC24DD2408943D
:10EFC000611C711C811C911C8BBEF3018791282E42
:10EFD0003324442455240894611C711C811C911C09
:10EFE0008BBEF3013791C55DDE4F3883CB52D140E4
:10EFF0000894611C711C811C911C8BBEF30147910C
:10F00000C45DDE4F4883CC52D140ADEFEA2EAFEF66
:10F01000FA2EAFEF0A2FAFEF1A2F6E0C7F1C801E57
:10F02000911E142D032DF22CEE24EA0CFB1C0C1D5A
:10F030001D1D0F940DF220E22093C6008091C000A8
:10F0400086FFFCCF8091C00080648093C000C65DC5
:10F05000DE4F8881CA52D1400F940DF230E23093D6
:10F06000C6008091C00086FFFCCF8091C000806404
:10F070008093C000C45DDE4F8881CC52D1400F9494
:10F080000DF240E24093C6008091C00086FFFCCFA5
:10F090008091C00080648093C000C55DDE4F888190
:10F0A000CB52D1400F940DF250E25093C6008091A4
:10F0B000C00086FFFCCF8091C00080648093C000B8
:10F0C0008FEFE8168FEFF80680E0080780E018075A
:10F0D00031F484E092EE60E00F94C2F1DFC0D80119
:10F0E000C7018070907CA070B0708050904CA040A0
:10F0F000B040D1F52FEF3FE340E050E0E222F322B1
:10F1000004231523CA5DDE4FA880B980CA80DB8046
:10F11000C652D140AE0CBF1CC01ED11EAA0CBB1CD7
:10F12000CC1CDD1C8EE092EE60E00F94C2F1BB2798
:10F13000A12F902F8F2D0F940DF28E2D0F940DF285
:10F1400030E23093C6008091C00086FFFCCF8091F2
:10F15000C00080648093C0004EE34093C60080915D
:10F16000C00086FFFCCF87C08EE09EEFA0E0B0E03D
:10F17000E822F9220A231B239CE0E91694E9F90608
:10F1800090E0090790E0190709F088C0C45DDE4FE0
:10F19000A881CC52D140EA2EFF2400E010E0102FCD
:10F1A0000F2DFE2CEE24C55DDE4FB881CB52D14031
:10F1B000EB0EF11C011D111DD601C501817090706F
:10F1C000A070B070DC0199278827E80EF91E0A1F8D
:10F1D0001B1F20EF30E040E050E0A222B322C42207
:10F1E000D52241E1AA0CBB1CCC1CDD1C4A95D1F7F1
:10F1F000EA0CFB1C0C1D1D1D81E090E0A0E0B0E0BE
:10F20000282239224A225B2235E1220C331C441C7D
:10F21000551C3A95D1F7E20CF31C041D151D57013E
:10F220006801AA0CBB1CCC1CDD1C85E192EE60E0E1
:10F230000F94C2F1C801AA27BB270F940DF2BB2778
:10F24000A12F902F8F2D0F940DF28E2D0F940DF274
:10F2500090E29093C6008091C00086FFFCCF809121
:10F26000C00080648093C000AEE3A093C60080918C
:10F27000C00086FFFCCF8091C00080648093C000F6
:10F28000C601AA27BB270F940DF2BB27AD2D9C2DDD
:10F290008B2D0F940DF28A2D0F940DF20F94DCF14B
:10F2A000CC5DDE4FE881F981C452D140F99709F471
:10F2B0004DCBF4E0EF2EF12C012D112D6E0C7F1CA7
:10F2C000801E911EF2CD83E093EE62E00F94F5F183
:10F2D0008AE192EE60E00F94C2F18091C00087FF56
:10F2E000FCCF1091C6001F751093C6008091C0001E
:10F2F00086FFFCCF8091C00080648093C0000F9493
:10F30000DCF1812F81548A3108F036C1163409F4BA
:10F3100095C0173490F4133409F44EC0143430F40B
:10F320001134F1F0123409F01DC130C0143409F465
:10F3300059C0153409F016C16BC01A3409F4C4C0A1
:10F340001B3438F4173409F48FC0183409F00AC19B
:10F35000A1C01B3409F4D2C01C3409F003C1E8C0B9
:10F360008FEF81B90DC082B1809582B980E090E0C5
:10F37000E0EDF7E03197F1F70196883C9105C1F790
:10F380008091C00087FFEFCF12B8EFC08FEF84B934
:10F390000DC085B1809585B980E090E0E0EDF7E0A3
:10F3A0003197F1F70196883C9105C1F78091C00033
:10F3B00087FFEFCF15B8D9C08FEF87B90DC088B1DF
:10F3C000809588B980E090E0E0EDF7E03197F1F7C3
:10F3D0000196883C9105C1F78091C00087FFEFCF6F
:10F3E00018B8C3C08FEF8AB90DC08BB180958BB9A7
:10F3F00080E090E0E0EDF7E03197F1F70196883C8E
:10F400009105C1F78091C00087FFEFCF1BB8ADC059
:10F410008FEF8DB90DC08EB180958EB980E090E0F0
:10F42000E0EDF7E03197F1F70196883C9105C1F7DF
:10F430008091C00087FFEFCF1EB897C08FEF80BBD1
:10F440000DC081B3809581BB80E090E0E0EDF7E0F6
:10F450003197F1F70196883C9105C1F78091C00082
:10F4600087FFEFCF11BA81C08FEF83BB0DC084B38C
:10F47000809584BB80E090E0E0EDF7E03197F1F714
:10F480000196883C9105C1F78091C00087FFEFCFBE
:10F4900014BA6BC08FEF809301010FC080910201FD
:10F4A00080958093020180E090E0E0EDF7E03197F5
:10F4B000F1F70196883C9105C1F78091C00087FF64
:10F4C000EDCF1092020151C08FEF809304010FC065
:10F4D0008091050180958093050180E090E0E0ED4A
:10F4E000F7E03197F1F70196883C9105C1F78091DB
:10F4F000C00087FFEDCF1092050137C08FEF8093DA
:10F5000007010FC08091080180958093080180E079
:10F5100090E0E0EDF7E03197F1F70196883C910536
:10F52000C1F78091C00087FFEDCF109208011DC088
:10F530008FEF80930A010FC080910B01809580931B
:10F540000B0180E090E0E0EDF7E03197F1F70196F4
:10F55000883C9105C1F78091C00087FFEDCF1092E4
:10F560000B0103C085E292EEEEC98091C00087FFD7
:10F57000FCCF8091C600EAC988E392EEE4C98CE131
:10F5800091EEE1C988249924933011F1943028F444
:10F59000913089F09230B8F408C0953061F195301F
:10F5A000F0F0963009F048C043C02B3109F042C951
:10F5B00091E06BE13FC96227C15DDE4F2883CF52E6
:10F5C000D14092E037C9B22FA0E0622793E032C960
:10F5D000822F90E0A82BB92B622794E02BC92E3004
:10F5E00009F039C3622795E0C05DDE4F19821882A9
:10F5F000C053D1401FC9E1E0F0E0EC0FFD1FC05D3A
:10F60000DE4F08811981C053D140E00FF11F2083E4
:10F610000F5F1F4FC05DDE4F19830883C053D14079
:10F6200062270A171B0709F005C9D80196E002C92D
:10F63000261709F010C303C0973009F0FBC87724E0
:10F640009981933109F412C19431C8F4963009F4C8
:10F65000D8C0973050F4923009F406C1933009F4C1
:10F660006DC0913009F059C253C0913109F477C08F
:10F67000923108F0BBC0903109F04FC2F5C098310B
:10F6800009F487C0993150F4953109F4EFC09531F0
:10F6900008F4C6C1963109F040C2C2C19A3109F4DA
:10F6A0006CC09A3108F491C09B3109F45BC09D3164
:10F6B00009F033C29D81903359F48F81882311F46E
:10F6C0009EE11CC0813011F091E018C098E916C08D
:10F6D000892F807591F0903539F4E0E0F0E089E011
:10F6E0008093570094910AC0983539F4E3E0F0E034
:10F6F00089E080935700949101C090E01A821B82A8
:10F700008D818C831D829E831F8227E030E009C299
:10F710001A8288E08B8381E48C8386E58D8382E581
:10F720008E8389E48F8383E5888780E589878FE5E9
:10F730008A8782E38B872BE030E0F3C18A818139AD
:10F7400041F0823941F0803911F48FE005C080E04A
:10F7500003C082E001C08AE01A828B8344C0772410
:10F76000739482C08D81882311F48EE12CC0813086
:10F7700011F081E028C088E926C01A82E1E0F0E0BB
:10F7800089E08093570084918B831C8224E030E0D1
:10F79000C8C18B81803589F48C81883039F4E2E0EE
:10F7A000F0E089E08093570084910DC0E0E0F0E044
:10F7B00089E080935700849106C0E3E0F0E089E09F
:10F7C0008093570084911A82DFCF8D81836C99E0FA
:10F7D000E1E0F0E0082E90935700E89507B600FCB2
:10F7E000FDCF1A821B8223E030E09BC180EC8A832C
:10F7F000CE5CDE4F188219821A821B82C253D1401E
:10F800008EC18A8190E0A0E0B0E0582F44273327D2
:10F8100022278B8190E0A0E0B0E0DC0199278827C7
:10F82000282B392B4A2B5B2B8D8190E0A0E0B0E098
:10F83000282B392B4A2B5B2B8C8190E0A0E0B0E089
:10F84000BA2FA92F982F8827282B392B4A2B5B2BCF
:10F85000220F331F441F551FC05EDE4F288339839C
:10F860004A835B83C052D1401A8259C13A81C95C34
:10F87000DE4F3883C753D140CA5CDE4F1882C6536F
:10F88000D1408B81C82EDD24CA5CDE4F488159816E
:10F89000C653D140C42AD52A933109F082C0CE5C28
:10F8A000DE4F88819981AA81BB81C253D1408050AB
:10F8B000904CA340B04030F583E0CE5CDE4FE88052
:10F8C000F9800A811B81C253D140F70100935B008C
:10F8D00080935700E89507B600FCFDCFCE5CDE4F65
:10F8E000088119812A813B81C253D14000501F4FAA
:10F8F0002F4F3F4FCE5CDE4F088319832A833B8313
:10F90000C253D140C05EDE4F488159816A817B81FC
:10F91000C052D140DE011B9631E08C9111962C91A2
:10F9200011971296C75CDE4F2883C953D140C85C3B
:10F93000DE4F1882C853D14090E0C85CDE4FE881AA
:10F94000F981C853D1408E2B9F2B0C01FA01609393
:10F950005B0030935700E89511244E5F5F4F6F4F67
:10F960007F4F0EEFE02E0FEFF02ECE0CDF1CC114F8
:10F97000D10499F685E0C05EDE4F088119812A81A5
:10F980003B81C052D140F80120935B008093570027
:10F99000E89507B600FCFDCF81E180935700E8951C
:10F9A00035C0C05EDE4F88819981AA81BB81C0527B
:10F9B000D140B695A795979587957C018601ABE0D8
:10F9C000AA2EB12CAC0EBD1E0BC0D5016D915D01F0
:10F9D000C7010F947FFE0894E11CF11C01501040F8
:10F9E0000115110591F7A60160E070E0440F551F65
:10F9F000661F771FC05EDE4FE880F9800A811B8199
:10FA0000C052D1404E0D5F1D601F711F1A82C05E33
:10FA1000DE4F488359836A837B83C052D1407FC0C5
:10FA2000FA80C55CDE4FF882CB53D140C65CDE4F16
:10FA30001882CA53D1408B81C82EDD24C65CDE4FAC
:10FA400008811981CA53D140C02AD12A1A828981DA
:10FA5000BE016D5F7F4F843121F59601C05EDE4FA0
:10FA6000E880F9800A811B81C052D1400BBFF701A9
:10FA700087919691DB018C9311969C936E5F7F4FDB
:10FA8000D801C7010296A11DB11DC05EDE4F88835B
:10FA90009983AA83BB83C052D14022503040F1F6F3
:10FAA00036C0C05EDE4F288139814A815B81C052F9
:10FAB000D1400894C108D108760100E010E0089414
:10FAC000C11CD11C0894E11CF11C011D111DE20E8A
:10FAD000F31E041F151F21BDBB27A52F942F832FB5
:10FAE00082BD2F5F3F4F4F4F5F4FF89A80B5DB01CC
:10FAF0008D93BD012E153F054007510761F7C05E8C
:10FB0000DE4F288339834A835B83C052D1409601FC
:10FB10002D5F3F4FFB01108204C080EC8A8322E0FE
:10FB200030E08BE18093C6008091C00086FFFCCF5F
:10FB30008091C00080648093C000C15DDE4FF88179
:10FB4000CF52D140F093C6008091C00086FFFCCF19
:10FB50008091C00080648093C000432F3093C60022
:10FB60008091C00086FFFCCF8091C00080648093AC
:10FB7000C000922F2093C6008091C00086FFFCCF6A
:10FB80008091C00080648093C0008EE08093C600A6
:10FB90008091C00086FFFCCF8091C000806480937C
:10FBA000C00065E1C15DDE4FE880CF52D1406E25D7
:10FBB00069276427FE01319610C090819093C6009A
:10FBC0008091C00086FFFCCF31968091C000806498
:10FBD0008093C0006927215030402115310569F715
:10FBE0006093C6008091C00086FFFCCF8091C0006A
:10FBF00080648093C00085B1805885B9772081F4F6
:10FC0000C15DDE4F0881CF52D1400F5FC15DDE4F35
:10FC10000883CF52D14090E0A0E0B0E00D941AF4F8
:10FC200027982F9880E090E020ED37E0F901319798
:10FC3000F1F7019684369105C9F700008091C00064
:10FC40008D7F8093C00081E180935700E895EE2777
:10FC5000FF270994FFCF90E00D941AF497FB092E2B
:10FC600007260AD077FD04D02ED006D000201AF443
:10FC7000709561957F4F0895F6F7909581959F4F08
:10FC80000895A1E21A2EAA1BBB1BFD010DC0AA1FDD
:10FC9000BB1FEE1FFF1FA217B307E407F50720F0F5
:10FCA000A21BB30BE40BF50B661F771F881F991F70
:10FCB0001A9469F760957095809590959B01AC01B9
:10FCC000BD01CF010895AA1BBB1B51E107C0AA1FAC
:10FCD000BB1FA617B70710F0A61BB70B881F991FED
:10FCE0005A95A9F780959095BC01CD010895F99991
:10FCF000FECF92BD81BDF89A992780B50895262F31
:10FD0000F999FECF1FBA92BD81BD20BD0FB6F89400
:0EFD1000FA9AF99A0FBE01960895F894FFCF63
:00000001FF
