:100000000C9441010C9472010C9472010C947201D5
:100010000C9472010C9472010C9472010C94720194
:100020000C9472010C9472010C9472010C94720184
:100030000C9472010C9472010C9472010C94720174
:100040000C9472010C94320F0C9472010C94720196
:100050000C9472010C9472010C9472010C945E0E5B
:100060000C9472010C94280E0C94FE0D0C947201E9
:100070000C9472010C9472010C9472010C94720134
:100080000C94040F0C9472010C9472010C94720184
:100090000C9472010C9472010C9472010C94720114
:1000A0000C9472010C9472010C94D60E0C94720193
:1000B0000C9472010C9472010C9472010C94A80EB1
:1000C0000C9472010C9472010C9472010C947201E4
:1000D0000C9472010C9472010C9472010C947201D4
:1000E0000C9472010C946B030C94FC030C94B302FB
:1000F0000C94C00F0C9467030C946E030C94900343
:100100000C945F030C9416020C9499030C9438021F
:100110000C949E030C940E030C9466020C947803CA
:100120000C947E030C9407020C94B2070C942B0CD5
:100130000C9463030C943C040C949A030C94860373
:100140000C948C030C9474030C9494030C942A0266
:100150000C94B1070C94CB030C9482030C945903B8
:1001600000002100240027002A002D003000330069
:1001700001010000040107010A010000220025001E
:1001800028002B002E003100340002010000050180
:1001900008010B01000020002300260029002C008C
:1001A0002F003200000100000301060109010505CE
:1001B0000505070508080808020202020A0A0808DD
:1001C000040404040101010101010101030303030B
:1001D00003030303040707070C0C0C0C0C0C0C0C9A
:1001E0000202020206060606060606060B0B0B0BAB
:1001F0000B0B0B0B010210202008081020401020D0
:1002000040800201020108040201010204081020DA
:1002100040808040201008040201800402018040D8
:100220002010080402010804020101020408102041
:100230004080010204081020408000000A0B0209DF
:100240000C0D0E0807030401000000000000000070
:10025000000000000000000000000000000000009E
:10026000000000000000121110000000000000005B
:10027000000000000000000000000000000000007E
:10028000C00F11241FBECFEFD1E2DEBFCDBF00E013
:100290000CBF13E0A0E0B2E0E6EBF8E200E00BBF39
:1002A00002C007900D92A231B107D9F724E0A2E174
:1002B000B3E001C01D92A73FB207E1F711E0C1E42E
:1002C000D1E000E006C021970109802FFE010E94C5
:1002D0005114C034D10780E00807A9F70E948510A7
:1002E0000C9459140C94000096E0899FD0011124BD
:1002F000A959BB4F90967C936E935F9791E091962E
:100300009C939197E091D404F091D5049091D304FB
:10031000992339F0309751F0811108C080918304FE
:100320001994309719F05C968C91FACF0895CF927A
:10033000DF92EF92FF920F931F9396E0899FF00157
:100340001124E959FB4F11A2278D30A1213031052D
:1003500051F178F02230310509F451C023303105D4
:1003600009F452C01F910F91FF90EF90DF90CF9052
:1003700008956623B9F361E070E00E9474012FB71D
:10038000F8948091C6039091C703A091C803B091DF
:10039000C9032FBF8093BF049093C004A093C104EE
:1003A000B093C204DFCF9FB7F894C090C603D0903B
:1003B000C703E090C803F090C9039FBF0091BF043A
:1003C0001091C0042091C1043091C204C01AD10A16
:1003D000E20AF30A0091D1041091D20430E020E047
:1003E0000C151D052E053F0550F462E070E01F91CD
:1003F0000F91FF90EF90DF90CF900C9474016111FA
:10040000B1CF63E070E0F3CF70E060E0F0CFFC01CB
:10041000538D448D252F30E0842F90E0821B930B69
:10042000541710F0CF96089501970895FC01918D0F
:10043000828D981761F0A28DAE0FBF2FB11D5D9612
:100440008C91928D9F5F9F73928F90E008958FEFB4
:100450009FEF0895FC01918D828D981731F0828D68
:10046000E80FF11D858D90E008958FEF9FEF0895BF
:10047000FC01918D228D892F90E0805C9F4F821B23
:1004800091098F7399270895FC01A48DA80FB92FA6
:10049000B11DA35ABF4F2C91848D90E001968F73AC
:1004A0009927848FA689B7892C93A089B1898C91CB
:1004B000837080648C93938D848D981306C002881A
:1004C000F389E02D80818F7D80830895EF92FF92E4
:1004D0000F931F93CF93DF93EC0181E0888F9B8D67
:1004E0008C8D98131AC0E889F989808185FF15C021
:1004F0009FB7F894EE89FF896083E889F989808144
:100500008370806480839FBF81E090E0DF91CF9112
:100510001F910F91FF90EF900895F62E0B8D10E034
:100520000F5F1F4F0F731127E02E8C8D8E110CC0A3
:100530000FB607FCFACFE889F989808185FFF5CFEE
:10054000CE010E944402F1CFEB8DEC0FFD2FF11D87
:10055000E35AFF4FF0829FB7F8940B8FEA89FB892B
:1005600080818062CFCFCF93DF93EC01888D882389
:10057000B9F0AA89BB89E889F9898C9185FD03C006
:10058000808186FD0DC00FB607FCF7CF8C9185FFEB
:10059000F2CF808185FFEDCFCE010E944402E9CFEA
:1005A000DF91CF9108958AEC93E00E94380221E018
:1005B000892B09F420E0822F089580E090E0892BB8
:1005C00029F00E94D30281110E94000080E090E097
:1005D000892B49F080E090E0892B29F00E940000EF
:1005E00081110E94000080E090E0892B49F080E0BA
:1005F00090E0892B29F00E94000081110E940000E8
:1006000080E090E0892B49F080E090E0892B29F090
:100610000E94000081110C9400000895AF92BF92D7
:10062000CF92DF92EF92FF920F931F93CF93DF93BE
:100630006C017B018B01040F151FEB015E01AE18ED
:10064000BF08C017D10759F06991D601ED91FC910F
:100650000190F081E02DC6011995892B79F7C5012C
:10066000DF91CF911F910F91FF90EF90DF90CF908E
:10067000BF90AF9008958150823108F05AC0E82FA2
:10068000F0E08827E95BFC4F8F4F0C94511467030F
:100690006B0359035F03630399036E0374037803C9
:1006A0007E03820386038C039003990394039A03C9
:1006B0009E03809180008F778093800008958091C1
:1006C00080008F7DF9CF80918000877FF5CF84B542
:1006D0008F7784BD089584B58F7DFBCF8091B00066
:1006E0008F778093B00008958091B0008F7DF9CF0F
:1006F000809190008F778093900008958091900072
:100700008F7DF9CF80919000877FF5CF8091A000F9
:100710008F778093A00008958091A0008F7DF9CFFE
:100720008091A000877FF5CF809120018F77809303
:1007300020010895809120018F7DF9CF80912001C3
:10074000877FF5CFCF93DF93282F30E0F901E65C68
:10075000FD4F8491F901EC50FE4FD491F901E2551F
:10076000FE4FC491CC23A1F081110E943B03EC2FDA
:10077000F0E0EE0FFF1FEC56FE4FA591B491EC9107
:10078000ED2381E090E009F480E0DF91CF910895BE
:1007900080E090E0FACF862F0C94A2031F93CF93B2
:1007A000DF93282F30E0F901E65CFD4F8491F901D9
:1007B000EC50FE4FD491F901E255FE4FC491CC2389
:1007C000A9F0162F81110E943B03EC2FF0E0EE0FF1
:1007D000FF1FE658FE4FA591B4918FB7F894EC91A6
:1007E000111108C0D095DE23DC938FBFDF91CF912C
:1007F0001F910895DE2BF8CF862F642F0C94CE0323
:10080000CF93DF9390E0FC01EC50FE4F2491825592
:100810009E4FFC0184918823C9F090E0880F991FB6
:10082000FC01E05AFE4FA591B491FC01E658FE4F41
:10083000C591D49161110DC09FB7F8948C9120950A
:1008400082238C938881282328839FBFDF91CF91B7
:100850000895623051F49FB7F8943C91822F8095AF
:1008600083238C93E8812E2BEFCF8FB7F894EC91F4
:100870002E2B2C938FBFEACF862F642F0C9400046D
:100880006F927F928F929F92AF92BF92CF92DF92A0
:10089000EF92FF920F931F93CF93DF9381E08093AA
:1008A000D3048FB7F8944091C6035091C703609169
:1008B000C8037091C9038FBF8091C3049091C40491
:1008C000A091C504B091C604481B590B6A0B7B0B61
:1008D0008091CF049091D004B0E0A0E084179507F8
:1008E000A607B70708F01DC1C0E08091CD04C81766
:1008F00060F4E091C904F091CA04EC0FF11D62E0CC
:1009000080810E940004CF5FF0CF712C812C912C4C
:10091000540183948091CE04781608F05FC0072DAF
:1009200010E0E091CB04F091CC04E00FF11F61E006
:1009300080810E940004E091CB04F091CC04E00F90
:10094000F11F60E080810E94CE03D501C401072C15
:1009500004C0880F991FAA1FBB1F0A94D2F76C010D
:100960007C01E094F094612C8091CD046816F8F439
:10097000C62DD0E0E091C904F091CA04EC0FFD1F30
:1009800080810E94A2032496CC0FDD1FC959DB4F42
:10099000892B41F4888199818C299D2999838883A9
:1009A0006394E2CF888199818E219F21F7CFE091D6
:1009B000CB04F091CC04E00FF11F61E080810E9434
:1009C000CE038091CB049091CC04080F191F60E0F6
:1009D000F80180810E94000473949CCFC7E6D4E0A4
:1009E000FE018FEF9FEF278D30A1232B21F4148E72
:1009F000968F858F11A2369624E0E33AF20799F795
:100A0000F12C96E0D92E8091CD04F81608F050C054
:100A1000E12C0F2D10E0000F111F01591B4F2091E9
:100A2000CE04E21608F042C0F801608171810E2CFC
:100A300002C0769567950A94E2F7F29E9001112420
:100A40002E0D311DE7E6F4E080E0458D568D24172C
:100A5000350709F46AC08F5F36968A30B1F760FFB8
:100A600023C0E7E6F4E090E080E0448D411117C038
:100A7000E091C704F091C804E20FF31F4081D89EB3
:100A8000F001D99EF00D1124E959FB4F448F368FA8
:100A9000258F10A2178E61E00E94970105C0019674
:100AA00036968A30910509F7E394B9CFF394ABCF2A
:100AB00080E099A19111892F2696F4E0C33ADF07CF
:100AC000C1F79FB7F8944091C6035091C703609156
:100AD000C8037091C9039FBF4093C3045093C404DB
:100AE0006093C5047093C6048823D9F0809188046C
:100AF0008823B9F08091860490918704019789F446
:100B000080918304DF91CF911F910F91FF90EF901F
:100B1000DF90CF90BF90AF909F908F907F906F901D
:100B200008951092D30480E0EDCF6170B5CF0E949C
:100B300040048823E1F308953FB7F8948091B70308
:100B40009091B803A091B903B091BA0326B5A89BC0
:100B500005C02F3F19F00196A11DB11D3FBFBA2F4F
:100B6000A92F982F8827BC01CD01620F711D811D0F
:100B7000911D42E0660F771F881F991F4A95D1F794
:100B800008958F929F92AF92BF92CF92DF92EF9291
:100B9000FF924B015C010E949C056B017C010E944D
:100BA0009C056C197D098E099F09683E734081057B
:100BB0009105A8F321E0821A9108A108B10888EEF6
:100BC000C80E83E0D81EE11CF11C81149104A1041D
:100BD000B10429F7FF90EF90DF90CF90BF90AF90D6
:100BE0009F908F900895CF92DF92EF92FF92CF93D4
:100BF000DF93EC01603282E07807CCF5653B71054C
:100C000014F064EB70E0898128E830E0281B31099A
:100C100087FD3395220F331F220F331F6901330FD6
:100C2000EE08FF088A8128E532E0281B310987FD9C
:100C30003395220F331F220F331F032E000C440B5A
:100C4000550B2C193D094E095F09DB0177FF02C0E6
:100C5000B0E0A0E00E94DB1224EB30E040E050E086
:100C60000E94B112C20ED31EE41EF51EB601E88129
:100C7000E03370F5298188E890E0821B910927FD17
:100C80009395880F991F880F991F681779077CF033
:100C90002A8188E592E0821B910927FD9395880FB0
:100CA000991F880F991F681779070CF4CB010297D9
:100CB000880F991F4FB7F8942E2F30E0F901EE0FEF
:100CC000FF1FE20FF31FEA5DFC4F928381834FBF4A
:100CD000DF91CF91FF90EF90DF90CF9008951F9319
:100CE000CF93DF93EC01162F8881803308F04EC03C
:100CF00061E0812F0E9400048881282F30E0F901F3
:100D0000EE0FFF1FE20FF31FEA5DFC4F1F736081C0
:100D1000607C612B608319821A822CE0622F0E9412
:100D20004514829FB001112430E020E0AB01420F56
:100D3000531FFA01EE0FFF1FE40FF51FEA5DFC4F92
:100D4000908196FD16C02F5F3F4F2C30310571F713
:100D5000813009F51092800082E08093810010922A
:100D6000850010928400B19A80916F008260809318
:100D70006F00E8818E2F90E0FC01EE0FFF1FE80F5F
:100D8000F91FEA5DFC4F8081806480838881DF9158
:100D9000CF911F910895823061F41092900080935A
:100DA0009100109295001092940088BB809371007E
:100DB000E0CF833069F41092A00082E08093A1001C
:100DC0001092A5001092A40089BB80937200D1CF2D
:100DD0008111CFCF1092200182E0809321011092E7
:100DE0002501109224018ABB80937300C2CFAF9279
:100DF000BF92CF92DF92EF92FF920F931F93CF9308
:100E0000DF936B017A01EC01CF5DDC4F28813CE080
:100E1000389F8001399F100D1124A0902503B12C1B
:100E200027FF1FC0FB011182108288818F5F88839A
:100E300088819801280F311D87FD3A95F6012A1502
:100E40003B051CF488818C30C4F18081918104962B
:100E500080349C4908F473C0F60180819181049626
:100E600070C088819801280F311D87FD3A952A1599
:100E70003B05DCF68881A801480F511D87FD5A9576
:100E8000FA01EE0FFF1FE40FF51FEA5DFC4F8081B2
:100E900086FFCBCF8881F801E80FF11D87FDFA9519
:100EA000CF01EE0FFF1FE80FF91FEA5DFC4F8081B5
:100EB00060E08F730E94CE03B8CF8081918128813A
:100EC000A801420F511D27FD5A959A01FA01EE0F14
:100ED000FF1FE20FF31FEA5DFC4F21813281820F79
:100EE000931FF7019183808388819801280F311D1A
:100EF00087FD3A95F901EE0FFF1FE20FF31FEA5D40
:100F0000FC4F808186FF22C08881080F111D87FD5C
:100F10001A95F801EE0FFF1FE00FF11FEA5DFC4F7D
:100F2000808161E08F73DF91CF911F910F91FF90CE
:100F3000EF90DF90CF90BF90AF900C94CE0380E401
:100F40009CE9F701918380838FEF8883DF91CF91B4
:100F50001F910F91FF90EF90DF90CF90BF90AF90D7
:100F60000895089590E080E00895CF93DF938FE196
:100F700090E09093BE038093BD03C091BD03D091D8
:100F8000BE03C832D105A4F461E08C2F0E94CE03C9
:100F900062E370E080E090E00E94C10560E08C2F89
:100FA0000E94CE032296D093BE03C093BD03E5CF2B
:100FB00087E290E09093BE038093BD03C091BD0390
:100FC000D091BE03CF31D105A4F061E08C2F0E94F7
:100FD000CE0362E370E080E090E00E94C10560E033
:100FE0008C2F0E94CE032297D093BE03C093BD03E3
:100FF000E5CFDF91CF910895CF93DF9386EA9FEFFE
:1010000090931C0380931B03C0911B03D0911C037E
:10101000CB35D1058CF4BE018EEE94E00E94F30531
:101020006FE070E080E090E00E94C1052596D093CB
:101030001C03C0931B03E8CFDF91CF910895CF939A
:10104000DF938AE590E090931C0380931B03C0918B
:101050001B03D0911C03D7FD11C0BE018EEE94E09E
:101060000E94F30565E070E080E090E00E94C10519
:101070002597D0931C03C0931B03E9CFDF91CF9139
:101080000895CF93DF9386EA9FEF90931C0380939C
:101090001B03C0911B03D0911C03CB35D1058CF4ED
:1010A000BE0184EF94E00E94F3056FE070E080E001
:1010B00090E00E94C1052596D0931C03C0931B03AA
:1010C000E8CFDF91CF910895CF93DF938AE590E049
:1010D00090931C0380931B03C0911B03D0911C03AE
:1010E000D7FD11C0BE0184EF94E00E94F30565E0D6
:1010F00070E080E090E00E94C1052597D0931C032A
:10110000C0931B03E9CFDF91CF910895FB010190BC
:101110000020E9F73197AF01461B570BDC01ED9139
:10112000FC910280F381E02D19948F929F92AF92EF
:10113000BF92EF92FF920F931F93CF93DF93CDB7A0
:10114000DEB7A1970FB6F894DEBF0FBECDBF7C010E
:10115000FA01CB0119A2223008F42AE08E010F5DBA
:101160001F4F822E912CB12CA12CBF01A5019401FF
:101170000E94E312F901CA016A300CF5605DD801E2
:101180006E938D01232B242B252B79F790E080E0A3
:10119000109721F0BD01C7010E948608A1960FB6E5
:1011A000F894DEBF0FBECDBFDF91CF911F910F919D
:1011B000FF90EF90BF90AF909F908F900895695CE3
:1011C000DECFCF93DF93BC0186ED94E00E948608CA
:1011D000EC0160E472E086ED94E00E9486088C0FDA
:1011E0009D1FDF91CF9108950C948608CF93DF93D4
:1011F000EC0160E08E810E94CE0361E08E810E944E
:10120000CE0360E08E810E94CE038BE891E00197CF
:10121000F1F7DF91CF910895CF92DF92EF92FF9295
:101220000F931F93CF93DF936C017C0187E0E80E4F
:10123000F11CD0E0C0E0062F10E0B8010C2E02C077
:10124000759567950A94E2F76170F70181917F01C6
:101250000E94CE032196C430D10579F7C601DF91F3
:10126000CF911F910F91FF90EF90DF90CF900C9452
:10127000F608CF92DF92EF92FF920F931F93CF93D6
:10128000DF93EC01F62E642F8C810E94CE038D81BA
:101290008F3F19F060E00E94CE030F2D10E08F8584
:1012A00084FF25C06E0187E0C80ED11CF12CE12C13
:1012B000B8010E2C02C0759567950A94E2F761702B
:1012C000F60181916F010E94CE03FFEFEF1AFF0A32
:1012D00088E0E816F10461F7CE01DF91CF911F910C
:1012E0000F91FF90EF90DF90CF900C94F608B8012B
:1012F00084E0759567958A95E1F7CE010E940C0907
:101300006F2DCE01DF91CF911F910F91FF90EF9044
:10131000DF90CF900C940C0940E0682F86ED94E0AC
:101320000C94390981E00E948C098BE39FE10197BD
:10133000F1F70895CF93DF93823029F49091E5047B
:1013400098609093E5048093E9041092EA0480E4A5
:101350008093EB0480E18093EC0480E58093ED04BE
:1013600061E08091DA040E9400048091DB048F3FE9
:1013700019F061E00E94000461E08091DC040E94A9
:101380000004C6EDD4E09E01265D34408091E50462
:1013900084FD0BC084E090E021962817390744F4BF
:1013A00061E08E810E940004EECF88E090E0F4CFEF
:1013B0008BE39DE00197F1F760E08091DA040E94F1
:1013C000CE0360E08091DC040E94CE038091DB04B8
:1013D0008F3F19F060E00E94CE038091E50484FD08
:1013E00034C063E086ED94E00E940C09CBE4D6E4BF
:1013F000CE010197F1F763E086ED94E00E940C09BD
:101400002197F1F763E086ED94E00E940C0983E5F3
:1014100092E00197F1F762E086ED94E00E940C09FA
:101420008091E50480620E948C0984E08093E60448
:101430008CE00E948C090E94920982E08093E7046C
:1014400086E0DF91CF910C948C0980620E948C0918
:101450008BE496E40197F1F78091E50480620E94A5
:101460008C0983E592E00197F1F78091E5048062B1
:101470000E948C09D5CF9091E904691710F06FEFA5
:10148000690FE62FF0E0EA52FB4F9489890F8068DC
:101490000C948C090E94920960E080E00E943B0A53
:1014A00063E472E086ED94E00E94F40861E080E07D
:1014B0000E943B0A62E572E086ED94E00E94F40827
:1014C00068EC70E080E090E00C94C1050E94920905
:1014D00060E080E00E943B0A6EE572E086ED94E0F9
:1014E0000E94F40861E080E00E943B0A64EC72E034
:1014F00086ED94E00C94F4080E94920960E080E08C
:101500000E943B0A6DE672E086ED94E00E94F408CA
:1015100064EF71E080E090E00C94C1050E949209B4
:1015200060E080E00E943B0A60E872E086ED94E0B3
:101530000E94F40864EF71E080E090E00E94C10531
:101540000E9492096DE872E086ED94E00E94F40832
:1015500061E080E00E943B0A64EC72E086ED94E07A
:101560000C94F4080E94920960E080E00E943B0A1B
:101570006DE872E086ED94E00E94F4080E94970501
:101580008093C303882381F061E080E00E943B0ADE
:101590006CE572E086ED94E00E94F40865E070E08E
:1015A00080E090E00E94C1058091C303882361F030
:1015B00080931A0361E081E00E943B0A6CE572E0CF
:1015C00086ED94E00E94F4080E9497058093C3037F
:1015D000882361F08093190361E082E00E943B0A56
:1015E0006CE572E086ED94E00E94F4080E94970595
:1015F0008093C303882361F08093180361E083E044
:101600000E943B0A6CE572E086ED94E00E94F408CB
:101610000E9497058093C3038A3299F561E084E0C4
:101620000E943B0A6CE572E086ED94E00E94F408AB
:1016300020911A03022E000C330B2053310944E68B
:10164000429FC001439F900D112420911903022E47
:10165000000C330B205331096AE0629FA001639FA5
:10166000500D1124840F951F20911803022E000C99
:10167000330B20533109820F931F9093C203809341
:10168000C10308950E94920960E080E00E943B0A35
:1016900069E472E086ED94E00E94F4080E949705E8
:1016A0008093C303882361F08093170361E080E097
:1016B0000E943B0A6CE572E086ED94E00E94F4081B
:1016C0000E9497058093C303882361F080931603DB
:1016D00061E081E00E943B0A6CE572E086ED94E0F7
:1016E0000E94F4080E9497058093C303882361F049
:1016F0008093150361E082E00E943B0A6CE572E092
:1017000086ED94E00E94F4080E9497058093C3033D
:10171000882361F08093140361E083E00E943B0A18
:101720006CE572E086ED94E00E94F4080E94970553
:101730008093C303882361F08093130361E084E006
:101740000E943B0A6CE572E086ED94E00E94F4088A
:101750000E9497058093C303882361F0809312034E
:1017600061E085E00E943B0A6CE572E086ED94E062
:101770000E94F4080E9497058093C3038A3209F0FF
:1017800069C061E086E00E943B0A6CE572E086ED8C
:1017900094E00E94F40820911703022E000C330BF2
:1017A0002053310940EA56E8249FC001259F900D3F
:1017B000349F900D112420911603022E000C330B40
:1017C0002053310960E177E2269FA001279F500D49
:1017D000369F500D1124840F951F20911503022E62
:1017E000000C330B2053310968EE73E0269FA001F3
:1017F000279F500D369F500D1124840F951F209167
:101800001403022E000C330B2053310964E6629F4F
:10181000A001639F500D1124840F951F2091130385
:10182000022E000C330B205331096AE0629FA001A5
:10183000639F500D1124840F951F20911203022ED7
:10184000000C330B20533109820F931F9093C00378
:101850008093BF03089541E00E94390981E090E040
:101860000895CF92DF92EF92FF92CF93DF930E9481
:10187000B507C5E0D0E061E085E10E94CE0362E3F8
:1018800070E080E090E00E94C10560E085E10E9488
:10189000CE0362E370E080E090E00E94C1052197F2
:1018A00051F70E9492090E94920960E080E00E9434
:1018B0003B0A66E972E086ED94E00E94F40864EF6A
:1018C00071E080E090E00E94C1050E9492098EE1E3
:1018D000C82ED12CE12CF12C86EA92E00E94E1087E
:1018E00061E084E00E943B0A2AE0B701A60186ED90
:1018F00094E00E94950864E670E080E090E00E9429
:10190000C1050E94920981E0C81AD108E108F108D6
:1019100019F70E94920960E080E00E943B0A63EBA5
:1019200072E086ED94E00E94F40861E080E00E949D
:101930003B0A60EC72E086ED94E00E94F40810929D
:10194000C5031092C403DF91CF91FF90EF90DF9019
:10195000CF900895CF92DF92EF92FF920F931F9353
:10196000CF93DF938EE190E09093BC038093BB0311
:10197000C091BB03D091BC03C732D105A4F461E090
:101980008C2F0E94CE0362E370E080E090E00E9422
:10199000C10560E08C2F0E94CE032296D093BC0339
:1019A000C093BB03E5CF86E290E09093BC038093A5
:1019B000BB03C091BB03D091BC03CE31D105A4F0D1
:1019C00061E08C2F0E94CE0362E370E080E090E043
:1019D0000E94C10560E08C2F0E94CE032297D09315
:1019E000BC03C093BB03E5CF0E94920960E080E096
:1019F0000E943B0A6DEC72E086ED94E00E94F408D0
:101A000068EE73E080E090E00E94C10560E08DE048
:101A10000E94CE0383E090E00197F1F761E08DE052
:101A20000E94CE0383E290E00197F1F760E08DE041
:101A30000E94CE03E0E0F2E06491EAEBF1E0E49191
:101A4000F0E0EE0FFF1FEC56FE4F8591949100E4FD
:101A500012E42FE030E0462F0E94600F61157105FF
:101A60008105910529F06F5F7F4F8F4F9F4F9F70CA
:101A70000E944C1326E933E44BE05DE30E94B0136F
:101A800020E030E040E05FE30E94B0130E941413B6
:101A900060931D0370931E0380931F039093200394
:101AA0006BED72E08AEC93E00E94F408C0901D0395
:101AB000D0901E03E0901F03F09020032AE0B701AE
:101AC000A601F7FE0DC06DE28AEC93E00E9466026B
:101AD00044275527BA014C195D096E097F092AE090
:101AE0008AEC93E00E94950860E472E08AEC93E04F
:101AF0000E94860883E290E00197F1F780911D0330
:101B000090911E03A0911F03B09120034497A1055B
:101B1000B1050CF04DC0C4E0D0E061E080E30E946C
:101B2000CE0362E370E080E090E00E94C10560E0D7
:101B300080E30E94CE03219781F78AE590E090939D
:101B40001C0380931B03C0911B03D0911C03D7FD82
:101B500011C0BE0181EF94E00E94F30565E070E0E2
:101B600080E090E00E94C1052597D0931C03C093AC
:101B70001B03E9CF86EA9FEF90931C0380931B031E
:101B8000C0911B03D0911C03CB35D1058CF4BE0151
:101B900081EF94E00E94F3056FE070E080E090E058
:101BA0000E94C1052596D0931C03C0931B03E8CF68
:101BB0000E94920960E080E00E943B0A66EE72E0BB
:101BC00086ED94E00E94F4080E9464080E941F08B9
:101BD0008AE00E94A2030197D9F70E94FC070E94A5
:101BE00041081092C5031092C403DF91CF911F9159
:101BF0000F91FF90EF90DF90CF9008951F920F927A
:101C00000FB60F9211240BB60F922F933F934F9361
:101C10005F936F937F938F939F93AF93BF93EF9354
:101C2000FF938AEC93E00E944402FF91EF91BF91F1
:101C3000AF919F918F917F916F915F914F913F9164
:101C40002F910F900BBE0F900FBE0F901F90189505
:101C50001F920F920FB60F9211240BB60F922F9373
:101C60008F939F93EF93FF93E091DA03F091DB035F
:101C70008081E091E003F091E10382FD1DC090813D
:101C80008091E3038F5F8F732091E403821741F00B
:101C9000E091E303F0E0E653FC4F958F8093E3037C
:101CA000FF91EF919F918F912F910F900BBE0F900D
:101CB0000FBE0F901F9018958081F2CF1F920F9248
:101CC0000FB60F9211242F933F938F939F93AF934F
:101CD000BF938091C6039091C703A091C803B091B0
:101CE000C9033091B60323E0230F2D3758F5019631
:101CF000A11DB11D2093B6038093C6039093C70323
:101D0000A093C803B093C9038091B7039091B8031F
:101D1000A091B903B091BA030196A11DB11D8093A2
:101D2000B7039093B803A093B903B093BA03BF91DC
:101D3000AF919F918F913F912F910F900FBE0F9078
:101D40001F90189526E8230F0296A11DB11DD2CF32
:101D50001F920F920FB60F9211240BB60F922F9372
:101D60003F934F935F936F937F938F939F93AF9323
:101D7000BF93EF93FF9348E251E064E271E090E09B
:101D800080E00E94F706FF91EF91BF91AF919F9184
:101D90008F917F916F915F914F913F912F910F9014
:101DA0000BBE0F900FBE0F901F9018951F920F92B1
:101DB0000FB60F9211240BB60F922F933F934F93B0
:101DC0005F936F937F938F939F93AF93BF93EF93A3
:101DD000FF9348EA50E064EA70E083E090E00E94FC
:101DE000F706FF91EF91BF91AF919F918F917F91F6
:101DF0006F915F914F913F912F910F900BBE0F907C
:101E00000FBE0F901F9018951F920F920FB60F9252
:101E100011240BB60F922F933F934F935F936F93C1
:101E20007F938F939F93AF93BF93EF93FF9348E973
:101E300050E064E970E082E090E00E94F706FF91D4
:101E4000EF91BF91AF919F918F917F916F915F9132
:101E50004F913F912F910F900BBE0F900FBE0F909F
:101E60001F9018951F920F920FB60F9211240BB668
:101E70000F922F933F934F935F936F937F938F9323
:101E80009F93AF93BF93EF93FF9348E850E064E8CC
:101E900070E081E090E00E94F706FF91EF91BF9122
:101EA000AF919F918F917F916F915F914F913F91F2
:101EB0002F910F900BBE0F900FBE0F901F90189593
:101EC000CF92DF92EF92FF920F931F93E82FF92F9B
:101ED00005C0015011092109310961F19081962352
:101EE0009417B9F305C0015011092109310911F105
:101EF000908196239413F7CFC12CD12CE12CF12C97
:101F00000AC08FEFC81AD80AE80AF80A0C151D058E
:101F10002E053F0579F080818623841791F36C2D7F
:101F20007D2D8E2D9F2D1F910F91FF90EF90DF90B3
:101F3000CF90089560E070E080E090E01F910F91F5
:101F4000FF90EF90DF90CF900895FC0190912503D2
:101F5000903398F481E0890F809325039083892F33
:101F600090E0FC01EE0FFF1FE80FF91FEA5DFC4F48
:101F700088EB9BE09283818308958FEF808308959F
:101F80001092CD031092CC0388EE93E0A0E0B0E075
:101F90008093CE039093CF03A093D003B093D1034B
:101FA0008CE192E09093CB038093CA0385EC90E0A0
:101FB0009093D7038093D60384EC90E09093D90359
:101FC0008093D80380EC90E09093DB038093DA0356
:101FD00081EC90E09093DD038093DC0382EC90E051
:101FE0009093DF038093DE0386EC90E09093E1030F
:101FF0008093E0031092E3031092E4031092E50350
:102000001092E60384EF94E00E94A50F81EF94E024
:102010000E94A50F8EEE94E00E94A50F1092D904A5
:102020001092D80488E392E09093D7048093D6046A
:1020300088E18093DA048FEF8093DB0489E1809359
:10204000DC048AE18093DD048BE18093DE048CE183
:102050008093DF048DE18093E0041092E1041092FC
:10206000E2041092E3041092E4041092E50481E08B
:102070000E949A091092690410926D0410926C04E7
:1020800010926E048EE292E090936804809367044D
:10209000E3E8F4E01082148213821582369684E01D
:1020A000EF3BF807B9F784E092E09093CA0480937D
:1020B000C90480E092E09093CC048093CB0484E048
:1020C0008093CD048093CE0488E092E09093C8047E
:1020D0008093C7048AE090E09093D0048093CF046B
:1020E00084EF91E09093D2048093D1041092D504B0
:1020F0001092D4041092C3041092C4041092C50428
:102100001092C6041092D3040895789484B5826026
:1021100084BD84B5816084BD85B5826085BD85B58B
:10212000816085BD80916E00816080936E00109209
:102130008100809181008260809381008091810084
:102140008160809381008091800081608093800015
:102150008091B10084608093B1008091B000816073
:102160008093B00080919100826080939100809173
:1021700091008160809391008091900081608093B4
:1021800090008091A10082608093A1008091A100C5
:1021900081608093A1008091A00081608093A00065
:1021A00080912101826080932101809121018160D1
:1021B0008093210180912001816080932001809192
:1021C0007A00846080937A0080917A0082608093A4
:1021D0007A0080917A00816080937A0080917A0001
:1021E000806880937A001092C10069E070E084EF0B
:1021F00094E00E946F0661E370E081EF94E00E943A
:102200006F0668E070E08EEE94E00E946F0682E058
:102210000E949A0961E085E10E94000460E08AE082
:102220000E94000461E08DE00E94000460E08CE008
:102230000E94000461E080E30E9400048FE190E0CE
:102240009093BE038093BD03C091BD03D091BE03A4
:10225000C832D10554F461E08C2F0E94000422960C
:10226000D093BE03C093BD03EFCF8EE190E0909377
:10227000BC038093BB03C091BB03D091BC03C732A6
:10228000D1050CF457C0EE24E394F12C8091C403E3
:102290009091C503892B81F460E080E00E943B0AA5
:1022A0008FEE92E00E94E10861E081E00E943B0A2B
:1022B00080E093E00E94E1080E9440048093C30301
:1022C000833211F5F092C503E092C4030E94B20A72
:1022D0008091C1039091C2030197039708F096C0C3
:1022E0000E944A0A0E94420B8091BF039091C00352
:1022F0008E3727E3920741F58091C1039091C20385
:10230000019761F50E94AA0C8BE00E94A20301973D
:1023100071F40E9464080E941F0860E273E080E08C
:1023200090E00E94C1050E94FC070E9441080E94A3
:10233000DD02ACCF61E08C2F0E9400042296D09386
:10234000BC03C093BB0397CF833829E6920791F56E
:102350008091C1039091C2030297A1F20E947C0A6E
:102360000E94B5070E94660A64EF71E080E090E089
:102370000E94C105D0E0C0E00E94420B8091BF03E3
:102380009091C0038E3727E39207F9F48091C1033F
:102390009091C203019719F50E94AA0CC2E0D0E007
:1023A0002196C130D10541F3229709F0ADCF0E94AB
:1023B000310CAACF85329C4089F68091C10390915F
:1023C000C203039709F49ECFC9CF833829E6920749
:1023D00099F48091C1039091C2030297E9F20E949F
:1023E0007C0A0E94B5070E94660A64EF71E080E0F3
:1023F00090E00E94C105D4CF85329C4081F7809146
:10240000C1039091C203039751F7C6CF0E948E0A71
:102410000E94B50764E670E080E090E00E94C1058C
:10242000D0E0C0E0C230D1050CF06ECF0E94400475
:102430008093C3038332B1F70E94B20A8091C10333
:102440009091C2030197039708F080C00E944A0A46
:102450000E94420B8091BF039091C0038E3727E307
:10246000920789F48091C1039091C2030197A9F466
:102470000E94AA0CC2E0D0E02196C230D10591F6AC
:102480000E94310CCFCF833829E6920799F58091CD
:10249000C1039091C203029759F30E947C0A0E94E3
:1024A000B5070E94660A64EF71E080E090E00E9448
:1024B000C10510E000E00E94420B8091BF039091A3
:1024C000C0038E3727E3920701F58091C1039091F5
:1024D000C203019721F50E94AA0C02E010E00F5FF1
:1024E0001F4F0130110539F30230110529F60E9402
:1024F000310CC2CF85329C4081F68091C10390910E
:10250000C203039709F4B4CFC8CF833829E69207F2
:1025100099F48091C1039091C2030297E1F20E9465
:102520007C0A0E94B5070E94660A64EF71E080E0B1
:1025300090E00E94C105D3CF85329C4081F7809105
:10254000C1039091C203039751F7C5CF0E948E0A31
:102550000E94B50764EF71E080E090E00E94C10541
:102560008BCF052E97FB1EF400940E94C81257FDD6
:1025700007D00E94E31207FC03D04EF40C94C8125B
:1025800050954095309521953F4F4F4F5F4F08959F
:1025900090958095709561957F4F8F4F9F4F0895CF
:1025A0000E940513A59F900DB49F900DA49F800DD0
:1025B000911D11240895B7FF0C94D0120E94D012DF
:1025C000821B930B0895A1E21A2EAA1BBB1BFD01CF
:1025D0000DC0AA1FBB1FEE1FFF1FA217B307E40702
:1025E000F50720F0A21BB30BE40BF50B661F771F5A
:1025F000881F991F1A9469F760957095809590953A
:102600009B01AC01BD01CF010895A29FB001B39F12
:10261000C001A39F700D811D1124911DB29F700DEB
:10262000811D1124911D08950E941B136894B111FE
:102630000C94AA1308950E948F1388F09F5798F066
:10264000B92F9927B751B0F0E1F0660F771F881FB7
:10265000991F1AF0BA95C9F714C0B13091F00E94D1
:10266000A913B1E008950C94A913672F782F882738
:10267000B85F39F0B93FCCF3869577956795B395F8
:10268000D9F73EF490958095709561957F4F8F4F67
:102690009F4F0895E89409C097FB3EF4909580956C
:1026A000709561957F4F8F4F9F4F9923A9F0F92F18
:1026B00096E9BB279395F695879577956795B79596
:1026C000F111F8CFFAF4BB0F11F460FF1BC06F5F7C
:1026D0007F4F8F4F9F4F16C0882311F096E911C08E
:1026E000772321F09EE8872F762F05C0662371F0AF
:1026F00096E8862F70E060E02AF09A95660F771FC3
:10270000881FDAF7880F9695879597F9089557FDF2
:102710009058440F551F59F05F3F71F04795880F4F
:1027200097FB991F61F09F3F79F0879508951216E6
:1027300013061406551FF2CF4695F1DF08C0161692
:1027400017061806991FF1CF869571056105089443
:102750000895E894BB2766277727CB0197F908955A
:102760000E94C3130C9434140E94261438F00E9463
:102770002D1420F0952311F00C941D140C942314A7
:1027800011240C94AA130E94871370F3959FC1F330
:10279000950F50E0551F629FF001729FBB27F00D0F
:1027A000B11D639FAA27F00DB11DAA1F649F662764
:1027B000B00DA11D661F829F2227B00DA11D621FB3
:1027C000739FB00DA11D621F839FA00D611D221F6D
:1027D000749F3327A00D611D231F849F600D211D51
:1027E000822F762F6A2F11249F5750409AF0F1F0D4
:1027F00088234AF0EE0FFF1FBB1F661F771F881F3D
:1028000091505040A9F79E3F510580F00C941D1443
:102810000C94AA135F3FE4F3983ED4F38695779522
:102820006795B795F795E7959F5FC1F7FE2B880FE2
:10283000911D9695879597F9089597F99F6780E878
:1028400070E060E008959FEF80EC089500240A9402
:102850001616170618060906089500240A9412167B
:102860001306140605060895092E0394000C11F4AE
:10287000882352F0BB0F40F4BF2B11F460FF04C05B
:102880006F5F7F4F8F4F9F4F0895991B79E004C072
:10289000991F961708F0961B881F7A95C9F780959F
:1028A0000895EE0FFF1F881F8BBF0790F691E02D54
:0628B0001994F894FFCF1B
:1028B60005060700030201003132330034353600C5
:1028C600373839002A3023000000000066020E0364
:1028D6000702B302380216022A02000000003C0476
:1028E600FC03CB03000000002B0C0E03B207B1075C
:1028F6000D0A00456E7465722050617373776F72AE
:102906006400616E64207072657373202A00456EE0
:102916007465722070617373776F72640057726F9B
:102926006E6720706173736F7772642021212100B6
:1029360057726F6E672049442021212100456E742D
:10294600657220494400416674657220636F756E36
:1029560074646F776E005761697420666F722033F6
:1029660030730041636365732044656E6965640076
:1029760054727920416761696E2021210055736583
:102986002053616E6974697A657200446973746173
:102996006E63653A2000556E6C6F636B656400204C
:1029A60057656C636F6D65212E456E7465722000E8
:1029B60020494420616E64205072657373202A207A
:0229C60000000F
:00000001FF
